{
  "contractName": "Diamantaire",
  "sourceName": "solc_0.7/diamond/Diamantaire.sol",
  "abi": [
    {
      "anonymous": false,
      "inputs": [
        {
          "indexed": false,
          "internalType": "contract Diamond",
          "name": "diamond",
          "type": "address"
        }
      ],
      "name": "DiamondCreated",
      "type": "event"
    },
    {
      "inputs": [
        {
          "internalType": "address",
          "name": "owner",
          "type": "address"
        },
        {
          "components": [
            {
              "internalType": "address",
              "name": "facetAddress",
              "type": "address"
            },
            {
              "internalType": "enum IDiamondCut.FacetCutAction",
              "name": "action",
              "type": "uint8"
            },
            {
              "internalType": "bytes4[]",
              "name": "functionSelectors",
              "type": "bytes4[]"
            }
          ],
          "internalType": "struct IDiamondCut.FacetCut[]",
          "name": "_diamondCut",
          "type": "tuple[]"
        },
        {
          "internalType": "bytes",
          "name": "data",
          "type": "bytes"
        },
        {
          "internalType": "bytes32",
          "name": "salt",
          "type": "bytes32"
        }
      ],
      "name": "createDiamond",
      "outputs": [
        {
          "internalType": "contract Diamond",
          "name": "diamond",
          "type": "address"
        }
      ],
      "stateMutability": "payable",
      "type": "function"
    }
  ],
  "bytecode": "0x608060405234801561001057600080fd5b50612a1d806100206000396000f3fe608060405260043610620000205760003560e01c8063ccc2e3161462000025575b600080fd5b6200003c620000363660046200030c565b62000054565b6040516200004b91906200056d565b60405180910390f35b60006200006062000277565b3081528215620000e35782886040516020016200007f9291906200053a565b604051602081830303815290604052805190602001209250348390888884604051620000ab9062000289565b620000b993929190620005f4565b82906040518091039083f591505080158015620000da573d6000803e3d6000fd5b50915062000125565b34878783604051620000f59062000289565b6200010393929190620005f4565b6040518091039082f090508015801562000121573d6000803e3d6000fd5b5091505b7f644ca5b0a8b0418e9faf3880659eeb84eaad45ad838b0173808e5ca72f5efc49826040516200015691906200056d565b60405180910390a173ffffffffffffffffffffffffffffffffffffffff8216631f931c1c8888876200018a5760006200018c565b855b89896040518663ffffffff1660e01b8152600401620001b09594939291906200058e565b600060405180830381600087803b158015620001cb57600080fd5b505af1158015620001e0573d6000803e3d6000fd5b50506040517ff2fde38b00000000000000000000000000000000000000000000000000000000815273ffffffffffffffffffffffffffffffffffffffff8516925063f2fde38b915062000238908b906004016200056d565b600060405180830381600087803b1580156200025357600080fd5b505af115801562000268573d6000803e3d6000fd5b50505050509695505050505050565b60408051602081019091526000815290565b61233580620006b383390190565b803573ffffffffffffffffffffffffffffffffffffffff81168114620002bc57600080fd5b92915050565b60008083601f840112620002d4578182fd5b50813567ffffffffffffffff811115620002ec578182fd5b6020830191508360208285010111156200030557600080fd5b9250929050565b6000806000806000806080878903121562000325578182fd5b62000331888862000297565b9550602087013567ffffffffffffffff808211156200034e578384fd5b818901915089601f83011262000362578384fd5b81358181111562000371578485fd5b8a6020808302850101111562000385578485fd5b602083019750809650506040890135915080821115620003a3578384fd5b50620003b289828a01620002c2565b979a9699509497949695606090950135949350505050565b73ffffffffffffffffffffffffffffffffffffffff169052565b60008284526020808501945082825b85811015620004415781357fffffffff0000000000000000000000000000000000000000000000000000000081168082146200042d578586fd5b8852509582019590820190600101620003f3565b509495945050505050565b8183526020808401936000918085028201810184845b878110156200051e57601f1985840301895281357fffffffffffffffffffffffffffffffffffffffffffffffffffffffffffffffa1883603018112620004a6578687fd5b87016060858201620004c486620004be838662000297565b620003ca565b620004d081846200069a565b9050620004e0878701826200052b565b506040620004f18184018462000631565b93508282880152620005078388018583620003e4565b9c88019c9650505092850192505060010162000462565b5090979650505050505050565b600381106200053657fe5b9052565b91825260601b7fffffffffffffffffffffffffffffffffffffffff00000000000000000000000016602082015260340190565b73ffffffffffffffffffffffffffffffffffffffff91909116815260200190565b600060608252620005a46060830187896200044c565b73ffffffffffffffffffffffffffffffffffffffff8616602084015282810360408401528381528385602083013781602085830101526020601f19601f8601168201019150509695505050505050565b6000604082526200060a6040830185876200044c565b905073ffffffffffffffffffffffffffffffffffffffff8351166020830152949350505050565b60008083357fffffffffffffffffffffffffffffffffffffffffffffffffffffffffffffffe184360301811262000666578283fd5b830160208101925035905067ffffffffffffffff8111156200068757600080fd5b6020810236038313156200030557600080fd5b6000823560038110620006ab578182fd5b939250505056fe60806040526040516200233538038062002335833981016040819052620000269162000a57565b604080516000808252602082019092526200004e918491620000f560201b6200008f1760201c565b6200006881600001516200023c60201b620001dd1760201c565b60006200007f6200029e60201b620002551760201c565b6301ffc9a760e01b600090815260039091016020526040808220805460ff1990811660019081179092556307e4c70760e21b845282842080548216831790556348e2b09360e01b845282842080548216831790556307f5828d60e41b8452919092208054909116909117905550620011d8915050565b6000620001016200029e565b600281015490915061ffff16806000806008830611156200013357506008810460009081526001840160205260409020545b60005b8751811015620001ab576200019d83838a84815181106200015357fe5b6020026020010151600001518b85815181106200016c57fe5b6020026020010151602001518c86815181106200018557fe5b602002602001015160400151620002c260201b60201c565b909350915060010162000136565b50828214620001c85760028401805461ffff191661ffff84161790555b6007821615620001ea5760088204600090815260018501602052604090208190555b7f8faa70878671ccd212d20771b795c50af8fd3ff6cf27f4bde57e5d4de0aeb6738787876040516200021f9392919062000c11565b60405180910390a162000233868662000802565b50505050505050565b6000620002486200029e565b6004810180546001600160a01b038581166001600160a01b031983168117909355604051939450169182907f8be0079c531659141344cd1fd0a4f28419497f9722a3daafe3b4186f6b6457e090600090a3505050565b7fc8fcad8db84d3cc18b4c41d551ea0ee66dd599cde068d998e57d5e09332c131c90565b60008080620002d06200029e565b90506000845111620002ff5760405162461bcd60e51b8152600401620002f69062000d8b565b60405180910390fd5b60008560028111156200030e57fe5b141562000447576001600160a01b0386166200033e5760405162461bcd60e51b8152600401620002f69062000e7a565b6200036386604051806060016040528060248152602001620022c16024913962000943565b60005b8451811015620004405760008582815181106200037f57fe5b6020908102919091018101516001600160e01b03198116600090815291859052604090912054909150606081901c15620003cd5760405162461bcd60e51b8152600401620002f69062000fc1565b6001600160e01b03198281166000818152602087815260409091206001600160601b031960608e901b168f17905560078e160290811c91811c199b909b16179960e0811415620004305760088c04600090815260018601602052604081209b909b555b5050506001988901980162000366565b50620007f6565b60018560028111156200045657fe5b1415620005b8576001600160a01b038616620004865760405162461bcd60e51b8152600401620002f69062000ec6565b620004ab866040518060600160405280602881526020016200230d6028913962000943565b60005b845181101562000440576000858281518110620004c757fe5b6020908102919091018101516001600160e01b03198116600090815291859052604090912054909150606081901c30811415620005185760405162461bcd60e51b8152600401620002f690620010c7565b896001600160a01b0316816001600160a01b031614156200054d5760405162461bcd60e51b8152600401620002f6906200101e565b6001600160a01b038116620005765760405162461bcd60e51b8152600401620002f69062001116565b506001600160e01b031990911660009081526020849052604090206001600160601b03919091166001600160601b031960608a901b16179055600101620004ae565b6002856002811115620005c757fe5b1415620007dc576001600160a01b03861615620005f85760405162461bcd60e51b8152600401620002f6906200106a565b6008880460001960078a160160005b8651811015620007ca578962000636576000199092016000818152600185016020526040902054995091600791505b6000806000808a85815181106200064957fe5b6020908102919091018101516001600160e01b031981166000908152918a9052604090912054909150606081901c620006965760405162461bcd60e51b8152600401620002f69062000dd6565b606081901c301415620006bd5760405162461bcd60e51b8152600401620002f69062000f73565b602087028f901b94506001600160e01b0319808616908316146200070e576001600160e01b03198516600090815260208a90526040902080546001600160601b0319166001600160601b0383161790555b6001600160e01b03198216600090815260208a9052604081205561ffff811660088104945060088106602002935050505085821462000777576000828152600188016020526040902080546001600160e01b031980841c19909116908516831c1790556200079b565b80836001600160e01b031916901c816001600160e01b031960001b901c198e16179c505b84620007b757600086815260018801602052604081208190559c505b5050600019909201915060010162000607565b506001600890920201019750620007f6565b60405162461bcd60e51b8152600401620002f69062000e33565b50959694955050505050565b6001600160a01b0382166200083957805115620008335760405162461bcd60e51b8152600401620002f69062000ce8565b6200093f565b60008151116200085d5760405162461bcd60e51b8152600401620002f69062000f16565b6001600160a01b038216301462000893576200089382604051806060016040528060288152602001620022e56028913962000943565b60006060836001600160a01b031683604051620008b1919062000bf3565b600060405180830381855af49150503d8060008114620008ee576040519150601f19603f3d011682016040523d82523d6000602084013e620008f3565b606091505b5091509150816200093c5780511562000922578060405162461bcd60e51b8152600401620002f6919062000ccc565b60405162461bcd60e51b8152600401620002f69062000d45565b50505b5050565b813b81816200093c5760405162461bcd60e51b8152600401620002f6919062000ccc565b80516001600160a01b03811681146200097f57600080fd5b92915050565b600082601f83011262000996578081fd5b8151620009ad620009a78262001189565b62001162565b818152915060208083019084810181840286018201871015620009cf57600080fd5b6000805b8581101562000a075782516001600160e01b031981168114620009f4578283fd5b85529383019391830191600101620009d3565b50505050505092915050565b8051600381106200097f57600080fd5b60006020828403121562000a35578081fd5b62000a41602062001162565b905062000a4f838362000967565b815292915050565b6000806040838503121562000a6a578182fd5b82516001600160401b038082111562000a81578384fd5b818501915085601f83011262000a95578384fd5b815162000aa6620009a78262001189565b81815260208082019190858101885b8581101562000b4157815188016060818e03601f1901121562000ad6578a8bfd5b62000ae2606062001162565b62000af08e86840162000967565b815262000b018e6040840162000a13565b8582015260608201518981111562000b17578c8dfd5b62000b278f878386010162000985565b604083015250865250938201939082019060010162000ab5565b505081975062000b548a828b0162000a23565b96505050505050509250929050565b6001600160a01b03169052565b6000815180845260208085019450808401835b8381101562000bab5781516001600160e01b0319168752958201959082019060010162000b83565b509495945050505050565b6000815180845262000bd0816020860160208601620011a9565b601f01601f19169290920160200192915050565b6003811062000bef57fe5b9052565b6000825162000c07818460208701620011a9565b9190910192915050565b60006060808301818452808751808352608086019150602092506080838202870101838a01865b8381101562000c9a57607f19898403018552815162000c5984825162000b63565b8681015162000c6b8886018262000be4565b5060409081015190840188905262000c868489018262000b70565b958701959350509085019060010162000c38565b505062000caa8488018a62000b63565b868103604088015262000cbe818962000bb6565b9a9950505050505050505050565b60006020825262000ce1602083018462000bb6565b9392505050565b6020808252603c908201527f4c69624469616d6f6e644375743a205f696e697420697320616464726573732860408201527f3029206275745f63616c6c64617461206973206e6f7420656d70747900000000606082015260800190565b60208082526026908201527f4c69624469616d6f6e644375743a205f696e69742066756e6374696f6e2072656040820152651d995c9d195960d21b606082015260800190565b6020808252602b908201527f4c69624469616d6f6e644375743a204e6f2073656c6563746f727320696e206660408201526a1858d95d081d1bc818dd5d60aa1b606082015260800190565b60208082526037908201527f4c69624469616d6f6e644375743a2043616e27742072656d6f76652066756e6360408201527f74696f6e207468617420646f65736e2774206578697374000000000000000000606082015260800190565b60208082526027908201527f4c69624469616d6f6e644375743a20496e636f727265637420466163657443756040820152663a20b1ba34b7b760c91b606082015260800190565b6020808252602c908201527f4c69624469616d6f6e644375743a204164642066616365742063616e2774206260408201526b65206164647265737328302960a01b606082015260800190565b60208082526030908201527f4c69624469616d6f6e644375743a205265706c6163652066616365742063616e60408201526f2774206265206164647265737328302960801b606082015260800190565b6020808252603d908201527f4c69624469616d6f6e644375743a205f63616c6c6461746120697320656d707460408201527f7920627574205f696e6974206973206e6f742061646472657373283029000000606082015260800190565b6020808252602e908201527f4c69624469616d6f6e644375743a2043616e27742072656d6f766520696d6d7560408201526d3a30b1363290333ab731ba34b7b760911b606082015260800190565b60208082526035908201527f4c69624469616d6f6e644375743a2043616e2774206164642066756e6374696f60408201527f6e207468617420616c7265616479206578697374730000000000000000000000606082015260800190565b6020808252603890820152600080516020620022a183398151915260408201527f6374696f6e20776974682073616d652066756e6374696f6e0000000000000000606082015260800190565b60208082526036908201527f4c69624469616d6f6e644375743a2052656d6f7665206661636574206164647260408201527f657373206d757374206265206164647265737328302900000000000000000000606082015260800190565b6020808252602f908201527f4c69624469616d6f6e644375743a2043616e2774207265706c61636520696d6d60408201526e3aba30b1363290333ab731ba34b7b760891b606082015260800190565b6020808252603890820152600080516020620022a183398151915260408201527f6374696f6e207468617420646f65736e27742065786973740000000000000000606082015260800190565b6040518181016001600160401b03811182821017156200118157600080fd5b604052919050565b60006001600160401b038211156200119f578081fd5b5060209081020190565b60005b83811015620011c6578181015183820152602001620011ac565b838111156200093c5750506000910152565b6110b980620011e86000396000f3fe60806040908152600080356001600160e01b03191681527fc8fcad8db84d3cc18b4c41d551ea0ee66dd599cde068d998e57d5e09332c131c602081905291902054819060601c8061006b5760405162461bcd60e51b815260040161006290610d23565b60405180910390fd5b3660008037600080366000845af43d6000803e80801561008a573d6000f35b3d6000fd5b6000610099610255565b600281015490915061ffff16806000806008830611156100ca57506008810460009081526001840160205260409020545b60005b87518110156101355761012883838a84815181106100e757fe5b6020026020010151600001518b85815181106100ff57fe5b6020026020010151602001518c868151811061011757fe5b602002602001015160400151610279565b90935091506001016100cd565b5082821461016e576002840180547fffffffffffffffffffffffffffffffffffffffffffffffffffffffffffff00001661ffff84161790555b600782161561018f5760088204600090815260018501602052604090208190555b7f8faa70878671ccd212d20771b795c50af8fd3ff6cf27f4bde57e5d4de0aeb6738787876040516101c2939291906109b1565b60405180910390a16101d486866107a0565b50505050505050565b60006101e7610255565b6004810180546001600160a01b038581167fffffffffffffffffffffffff000000000000000000000000000000000000000083168117909355604051939450169182907f8be0079c531659141344cd1fd0a4f28419497f9722a3daafe3b4186f6b6457e090600090a3505050565b7fc8fcad8db84d3cc18b4c41d551ea0ee66dd599cde068d998e57d5e09332c131c90565b6000806000610286610255565b905060008451116102a95760405162461bcd60e51b815260040161006290610b52565b60008560028111156102b757fe5b14156103e6576001600160a01b0386166102e35760405162461bcd60e51b815260040161006290610c69565b61030586604051806060016040528060248152602001611010602491396108cb565b60005b84518110156103e057600085828151811061031f57fe5b6020908102919091018101516001600160e01b03198116600090815291859052604090912054909150606081901c1561036a5760405162461bcd60e51b815260040161006290610e12565b6001600160e01b03198281166000818152602087815260409091206bffffffffffffffffffffffff1960608e901b168f17905560078e160290811c91811c199b909b16179960e08114156103d15760088c04600090815260018601602052604081209b909b555b50505060019889019801610308565b50610794565b60018560028111156103f457fe5b141561054d576001600160a01b0386166104205760405162461bcd60e51b815260040161006290610cc6565b6104428660405180606001604052806028815260200161105c602891396108cb565b60005b84518110156103e057600085828151811061045c57fe5b6020908102919091018101516001600160e01b03198116600090815291859052604090912054909150606081901c308114156104aa5760405162461bcd60e51b815260040161006290610f29565b896001600160a01b0316816001600160a01b031614156104dc5760405162461bcd60e51b815260040161006290610e6f565b6001600160a01b0381166105025760405162461bcd60e51b815260040161006290610f86565b506001600160e01b031990911660009081526020849052604090206bffffffffffffffffffffffff919091166bffffffffffffffffffffffff1960608a901b16179055600101610445565b600285600281111561055b57fe5b141561077c576001600160a01b038616156105885760405162461bcd60e51b815260040161006290610ecc565b6008880460001960078a160160005b865181101561076b57896105c4576000199092016000818152600185016020526040902054995091600791505b6000806000808a85815181106105d657fe5b6020908102919091018101516001600160e01b031981166000908152918a9052604090912054909150606081901c6106205760405162461bcd60e51b815260040161006290610baf565b606081901c3014156106445760405162461bcd60e51b815260040161006290610db5565b602087028f901b94506001600160e01b03198086169083161461069e576001600160e01b03198516600090815260208a90526040902080546bffffffffffffffffffffffff19166bffffffffffffffffffffffff83161790555b6001600160e01b03198216600090815260208a9052604081205561ffff8116600881049450600881066020029350505050858214610705576000828152600188016020526040902080546001600160e01b031980841c19909116908516831c17905561073e565b80837bffffffffffffffffffffffffffffffffffffffffffffffffffffffff1916901c816001600160e01b031960001b901c198e16179c505b8461075957600086815260018801602052604081208190559c505b50506000199092019150600101610597565b506001600890920201019750610794565b60405162461bcd60e51b815260040161006290610c0c565b50959694955050505050565b6001600160a01b0382166107d2578051156107cd5760405162461bcd60e51b815260040161006290610a98565b6108c7565b60008151116107f35760405162461bcd60e51b815260040161006290610d58565b6001600160a01b03821630146108255761082582604051806060016040528060288152602001611034602891396108cb565b60006060836001600160a01b0316836040516108419190610995565b600060405180830381855af49150503d806000811461087c576040519150601f19603f3d011682016040523d82523d6000602084013e610881565b606091505b5091509150816108c4578051156108ac578060405162461bcd60e51b81526004016100629190610a7e565b60405162461bcd60e51b815260040161006290610af5565b50505b5050565b813b81816108c45760405162461bcd60e51b81526004016100629190610a7e565b6001600160a01b03169052565b6000815180845260208085019450808401835b838110156109325781516001600160e01b0319168752958201959082019060010161090c565b509495945050505050565b60008151808452610955816020860160208601610fe3565b601f017fffffffffffffffffffffffffffffffffffffffffffffffffffffffffffffffe0169290920160200192915050565b6003811061099157fe5b9052565b600082516109a7818460208701610fe3565b9190910192915050565b60006060808301818452808751808352608086019150602092506080838202870101838a01865b83811015610a50577fffffffffffffffffffffffffffffffffffffffffffffffffffffffffffffff808984030185528151610a148482516108ec565b86810151610a2488860182610987565b50604090810151908401889052610a3d848901826108f9565b95870195935050908501906001016109d8565b5050610a5e8488018a6108ec565b8681036040880152610a70818961093d565b9a9950505050505050505050565b600060208252610a91602083018461093d565b9392505050565b6020808252603c908201527f4c69624469616d6f6e644375743a205f696e697420697320616464726573732860408201527f3029206275745f63616c6c64617461206973206e6f7420656d70747900000000606082015260800190565b60208082526026908201527f4c69624469616d6f6e644375743a205f696e69742066756e6374696f6e20726560408201527f7665727465640000000000000000000000000000000000000000000000000000606082015260800190565b6020808252602b908201527f4c69624469616d6f6e644375743a204e6f2073656c6563746f727320696e206660408201527f6163657420746f20637574000000000000000000000000000000000000000000606082015260800190565b60208082526037908201527f4c69624469616d6f6e644375743a2043616e27742072656d6f76652066756e6360408201527f74696f6e207468617420646f65736e2774206578697374000000000000000000606082015260800190565b60208082526027908201527f4c69624469616d6f6e644375743a20496e636f7272656374204661636574437560408201527f74416374696f6e00000000000000000000000000000000000000000000000000606082015260800190565b6020808252602c908201527f4c69624469616d6f6e644375743a204164642066616365742063616e2774206260408201527f6520616464726573732830290000000000000000000000000000000000000000606082015260800190565b60208082526030908201527f4c69624469616d6f6e644375743a205265706c6163652066616365742063616e60408201527f2774206265206164647265737328302900000000000000000000000000000000606082015260800190565b6020808252818101527f4469616d6f6e643a2046756e6374696f6e20646f6573206e6f74206578697374604082015260600190565b6020808252603d908201527f4c69624469616d6f6e644375743a205f63616c6c6461746120697320656d707460408201527f7920627574205f696e6974206973206e6f742061646472657373283029000000606082015260800190565b6020808252602e908201527f4c69624469616d6f6e644375743a2043616e27742072656d6f766520696d6d7560408201527f7461626c652066756e6374696f6e000000000000000000000000000000000000606082015260800190565b60208082526035908201527f4c69624469616d6f6e644375743a2043616e2774206164642066756e6374696f60408201527f6e207468617420616c7265616479206578697374730000000000000000000000606082015260800190565b60208082526038908201527f4c69624469616d6f6e644375743a2043616e2774207265706c6163652066756e60408201527f6374696f6e20776974682073616d652066756e6374696f6e0000000000000000606082015260800190565b60208082526036908201527f4c69624469616d6f6e644375743a2052656d6f7665206661636574206164647260408201527f657373206d757374206265206164647265737328302900000000000000000000606082015260800190565b6020808252602f908201527f4c69624469616d6f6e644375743a2043616e2774207265706c61636520696d6d60408201527f757461626c652066756e6374696f6e0000000000000000000000000000000000606082015260800190565b60208082526038908201527f4c69624469616d6f6e644375743a2043616e2774207265706c6163652066756e60408201527f6374696f6e207468617420646f65736e27742065786973740000000000000000606082015260800190565b60005b83811015610ffe578181015183820152602001610fe6565b838111156108c4575050600091015256fe4c69624469616d6f6e644375743a2041646420666163657420686173206e6f20636f64654c69624469616d6f6e644375743a205f696e6974206164647265737320686173206e6f20636f64654c69624469616d6f6e644375743a205265706c61636520666163657420686173206e6f20636f6465a2646970667358221220fe11e5e32b929e972ae3729d4aa2f12aa6ba401fbad7f0725b7168c445e8649e64736f6c634300070100334c69624469616d6f6e644375743a2043616e2774207265706c6163652066756e4c69624469616d6f6e644375743a2041646420666163657420686173206e6f20636f64654c69624469616d6f6e644375743a205f696e6974206164647265737320686173206e6f20636f64654c69624469616d6f6e644375743a205265706c61636520666163657420686173206e6f20636f6465a26469706673582212206fe4c4ea8541ca95612d47122566f2943b2e1ed33bb3a4181dc4b6553a8832e964736f6c63430007010033",
  "linkReferences": {},
  "deployedLinkReferences": {},
  "devdoc": {
    "kind": "dev",
    "methods": {},
    "version": 1
  },
  "evm": {
    "bytecode": {
      "linkReferences": {},
      "opcodes": "PUSH1 0x80 PUSH1 0x40 MSTORE CALLVALUE DUP1 ISZERO PUSH2 0x10 JUMPI PUSH1 0x0 DUP1 REVERT JUMPDEST POP PUSH2 0x2A1D DUP1 PUSH2 0x20 PUSH1 0x0 CODECOPY PUSH1 0x0 RETURN INVALID PUSH1 0x80 PUSH1 0x40 MSTORE PUSH1 0x4 CALLDATASIZE LT PUSH3 0x20 JUMPI PUSH1 0x0 CALLDATALOAD PUSH1 0xE0 SHR DUP1 PUSH4 0xCCC2E316 EQ PUSH3 0x25 JUMPI JUMPDEST PUSH1 0x0 DUP1 REVERT JUMPDEST PUSH3 0x3C PUSH3 0x36 CALLDATASIZE PUSH1 0x4 PUSH3 0x30C JUMP JUMPDEST PUSH3 0x54 JUMP JUMPDEST PUSH1 0x40 MLOAD PUSH3 0x4B SWAP2 SWAP1 PUSH3 0x56D JUMP JUMPDEST PUSH1 0x40 MLOAD DUP1 SWAP2 SUB SWAP1 RETURN JUMPDEST PUSH1 0x0 PUSH3 0x60 PUSH3 0x277 JUMP JUMPDEST ADDRESS DUP2 MSTORE DUP3 ISZERO PUSH3 0xE3 JUMPI DUP3 DUP9 PUSH1 0x40 MLOAD PUSH1 0x20 ADD PUSH3 0x7F SWAP3 SWAP2 SWAP1 PUSH3 0x53A JUMP JUMPDEST PUSH1 0x40 MLOAD PUSH1 0x20 DUP2 DUP4 SUB SUB DUP2 MSTORE SWAP1 PUSH1 0x40 MSTORE DUP1 MLOAD SWAP1 PUSH1 0x20 ADD KECCAK256 SWAP3 POP CALLVALUE DUP4 SWAP1 DUP9 DUP9 DUP5 PUSH1 0x40 MLOAD PUSH3 0xAB SWAP1 PUSH3 0x289 JUMP JUMPDEST PUSH3 0xB9 SWAP4 SWAP3 SWAP2 SWAP1 PUSH3 0x5F4 JUMP JUMPDEST DUP3 SWAP1 PUSH1 0x40 MLOAD DUP1 SWAP2 SUB SWAP1 DUP4 CREATE2 SWAP2 POP POP DUP1 ISZERO DUP1 ISZERO PUSH3 0xDA JUMPI RETURNDATASIZE PUSH1 0x0 DUP1 RETURNDATACOPY RETURNDATASIZE PUSH1 0x0 REVERT JUMPDEST POP SWAP2 POP PUSH3 0x125 JUMP JUMPDEST CALLVALUE DUP8 DUP8 DUP4 PUSH1 0x40 MLOAD PUSH3 0xF5 SWAP1 PUSH3 0x289 JUMP JUMPDEST PUSH3 0x103 SWAP4 SWAP3 SWAP2 SWAP1 PUSH3 0x5F4 JUMP JUMPDEST PUSH1 0x40 MLOAD DUP1 SWAP2 SUB SWAP1 DUP3 CREATE SWAP1 POP DUP1 ISZERO DUP1 ISZERO PUSH3 0x121 JUMPI RETURNDATASIZE PUSH1 0x0 DUP1 RETURNDATACOPY RETURNDATASIZE PUSH1 0x0 REVERT JUMPDEST POP SWAP2 POP JUMPDEST PUSH32 0x644CA5B0A8B0418E9FAF3880659EEB84EAAD45AD838B0173808E5CA72F5EFC49 DUP3 PUSH1 0x40 MLOAD PUSH3 0x156 SWAP2 SWAP1 PUSH3 0x56D JUMP JUMPDEST PUSH1 0x40 MLOAD DUP1 SWAP2 SUB SWAP1 LOG1 PUSH20 0xFFFFFFFFFFFFFFFFFFFFFFFFFFFFFFFFFFFFFFFF DUP3 AND PUSH4 0x1F931C1C DUP9 DUP9 DUP8 PUSH3 0x18A JUMPI PUSH1 0x0 PUSH3 0x18C JUMP JUMPDEST DUP6 JUMPDEST DUP10 DUP10 PUSH1 0x40 MLOAD DUP7 PUSH4 0xFFFFFFFF AND PUSH1 0xE0 SHL DUP2 MSTORE PUSH1 0x4 ADD PUSH3 0x1B0 SWAP6 SWAP5 SWAP4 SWAP3 SWAP2 SWAP1 PUSH3 0x58E JUMP JUMPDEST PUSH1 0x0 PUSH1 0x40 MLOAD DUP1 DUP4 SUB DUP2 PUSH1 0x0 DUP8 DUP1 EXTCODESIZE ISZERO DUP1 ISZERO PUSH3 0x1CB JUMPI PUSH1 0x0 DUP1 REVERT JUMPDEST POP GAS CALL ISZERO DUP1 ISZERO PUSH3 0x1E0 JUMPI RETURNDATASIZE PUSH1 0x0 DUP1 RETURNDATACOPY RETURNDATASIZE PUSH1 0x0 REVERT JUMPDEST POP POP PUSH1 0x40 MLOAD PUSH32 0xF2FDE38B00000000000000000000000000000000000000000000000000000000 DUP2 MSTORE PUSH20 0xFFFFFFFFFFFFFFFFFFFFFFFFFFFFFFFFFFFFFFFF DUP6 AND SWAP3 POP PUSH4 0xF2FDE38B SWAP2 POP PUSH3 0x238 SWAP1 DUP12 SWAP1 PUSH1 0x4 ADD PUSH3 0x56D JUMP JUMPDEST PUSH1 0x0 PUSH1 0x40 MLOAD DUP1 DUP4 SUB DUP2 PUSH1 0x0 DUP8 DUP1 EXTCODESIZE ISZERO DUP1 ISZERO PUSH3 0x253 JUMPI PUSH1 0x0 DUP1 REVERT JUMPDEST POP GAS CALL ISZERO DUP1 ISZERO PUSH3 0x268 JUMPI RETURNDATASIZE PUSH1 0x0 DUP1 RETURNDATACOPY RETURNDATASIZE PUSH1 0x0 REVERT JUMPDEST POP POP POP POP POP SWAP7 SWAP6 POP POP POP POP POP POP JUMP JUMPDEST PUSH1 0x40 DUP1 MLOAD PUSH1 0x20 DUP2 ADD SWAP1 SWAP2 MSTORE PUSH1 0x0 DUP2 MSTORE SWAP1 JUMP JUMPDEST PUSH2 0x2335 DUP1 PUSH3 0x6B3 DUP4 CODECOPY ADD SWAP1 JUMP JUMPDEST DUP1 CALLDATALOAD PUSH20 0xFFFFFFFFFFFFFFFFFFFFFFFFFFFFFFFFFFFFFFFF DUP2 AND DUP2 EQ PUSH3 0x2BC JUMPI PUSH1 0x0 DUP1 REVERT JUMPDEST SWAP3 SWAP2 POP POP JUMP JUMPDEST PUSH1 0x0 DUP1 DUP4 PUSH1 0x1F DUP5 ADD SLT PUSH3 0x2D4 JUMPI DUP2 DUP3 REVERT JUMPDEST POP DUP2 CALLDATALOAD PUSH8 0xFFFFFFFFFFFFFFFF DUP2 GT ISZERO PUSH3 0x2EC JUMPI DUP2 DUP3 REVERT JUMPDEST PUSH1 0x20 DUP4 ADD SWAP2 POP DUP4 PUSH1 0x20 DUP3 DUP6 ADD ADD GT ISZERO PUSH3 0x305 JUMPI PUSH1 0x0 DUP1 REVERT JUMPDEST SWAP3 POP SWAP3 SWAP1 POP JUMP JUMPDEST PUSH1 0x0 DUP1 PUSH1 0x0 DUP1 PUSH1 0x0 DUP1 PUSH1 0x80 DUP8 DUP10 SUB SLT ISZERO PUSH3 0x325 JUMPI DUP2 DUP3 REVERT JUMPDEST PUSH3 0x331 DUP9 DUP9 PUSH3 0x297 JUMP JUMPDEST SWAP6 POP PUSH1 0x20 DUP8 ADD CALLDATALOAD PUSH8 0xFFFFFFFFFFFFFFFF DUP1 DUP3 GT ISZERO PUSH3 0x34E JUMPI DUP4 DUP5 REVERT JUMPDEST DUP2 DUP10 ADD SWAP2 POP DUP10 PUSH1 0x1F DUP4 ADD SLT PUSH3 0x362 JUMPI DUP4 DUP5 REVERT JUMPDEST DUP2 CALLDATALOAD DUP2 DUP2 GT ISZERO PUSH3 0x371 JUMPI DUP5 DUP6 REVERT JUMPDEST DUP11 PUSH1 0x20 DUP1 DUP4 MUL DUP6 ADD ADD GT ISZERO PUSH3 0x385 JUMPI DUP5 DUP6 REVERT JUMPDEST PUSH1 0x20 DUP4 ADD SWAP8 POP DUP1 SWAP7 POP POP PUSH1 0x40 DUP10 ADD CALLDATALOAD SWAP2 POP DUP1 DUP3 GT ISZERO PUSH3 0x3A3 JUMPI DUP4 DUP5 REVERT JUMPDEST POP PUSH3 0x3B2 DUP10 DUP3 DUP11 ADD PUSH3 0x2C2 JUMP JUMPDEST SWAP8 SWAP11 SWAP7 SWAP10 POP SWAP5 SWAP8 SWAP5 SWAP7 SWAP6 PUSH1 0x60 SWAP1 SWAP6 ADD CALLDATALOAD SWAP5 SWAP4 POP POP POP POP JUMP JUMPDEST PUSH20 0xFFFFFFFFFFFFFFFFFFFFFFFFFFFFFFFFFFFFFFFF AND SWAP1 MSTORE JUMP JUMPDEST PUSH1 0x0 DUP3 DUP5 MSTORE PUSH1 0x20 DUP1 DUP6 ADD SWAP5 POP DUP3 DUP3 JUMPDEST DUP6 DUP2 LT ISZERO PUSH3 0x441 JUMPI DUP2 CALLDATALOAD PUSH32 0xFFFFFFFF00000000000000000000000000000000000000000000000000000000 DUP2 AND DUP1 DUP3 EQ PUSH3 0x42D JUMPI DUP6 DUP7 REVERT JUMPDEST DUP9 MSTORE POP SWAP6 DUP3 ADD SWAP6 SWAP1 DUP3 ADD SWAP1 PUSH1 0x1 ADD PUSH3 0x3F3 JUMP JUMPDEST POP SWAP5 SWAP6 SWAP5 POP POP POP POP POP JUMP JUMPDEST DUP2 DUP4 MSTORE PUSH1 0x20 DUP1 DUP5 ADD SWAP4 PUSH1 0x0 SWAP2 DUP1 DUP6 MUL DUP3 ADD DUP2 ADD DUP5 DUP5 JUMPDEST DUP8 DUP2 LT ISZERO PUSH3 0x51E JUMPI PUSH1 0x1F NOT DUP6 DUP5 SUB ADD DUP10 MSTORE DUP2 CALLDATALOAD PUSH32 0xFFFFFFFFFFFFFFFFFFFFFFFFFFFFFFFFFFFFFFFFFFFFFFFFFFFFFFFFFFFFFFA1 DUP9 CALLDATASIZE SUB ADD DUP2 SLT PUSH3 0x4A6 JUMPI DUP7 DUP8 REVERT JUMPDEST DUP8 ADD PUSH1 0x60 DUP6 DUP3 ADD PUSH3 0x4C4 DUP7 PUSH3 0x4BE DUP4 DUP7 PUSH3 0x297 JUMP JUMPDEST PUSH3 0x3CA JUMP JUMPDEST PUSH3 0x4D0 DUP2 DUP5 PUSH3 0x69A JUMP JUMPDEST SWAP1 POP PUSH3 0x4E0 DUP8 DUP8 ADD DUP3 PUSH3 0x52B JUMP JUMPDEST POP PUSH1 0x40 PUSH3 0x4F1 DUP2 DUP5 ADD DUP5 PUSH3 0x631 JUMP JUMPDEST SWAP4 POP DUP3 DUP3 DUP9 ADD MSTORE PUSH3 0x507 DUP4 DUP9 ADD DUP6 DUP4 PUSH3 0x3E4 JUMP JUMPDEST SWAP13 DUP9 ADD SWAP13 SWAP7 POP POP POP SWAP3 DUP6 ADD SWAP3 POP POP PUSH1 0x1 ADD PUSH3 0x462 JUMP JUMPDEST POP SWAP1 SWAP8 SWAP7 POP POP POP POP POP POP POP JUMP JUMPDEST PUSH1 0x3 DUP2 LT PUSH3 0x536 JUMPI INVALID JUMPDEST SWAP1 MSTORE JUMP JUMPDEST SWAP2 DUP3 MSTORE PUSH1 0x60 SHL PUSH32 0xFFFFFFFFFFFFFFFFFFFFFFFFFFFFFFFFFFFFFFFF000000000000000000000000 AND PUSH1 0x20 DUP3 ADD MSTORE PUSH1 0x34 ADD SWAP1 JUMP JUMPDEST PUSH20 0xFFFFFFFFFFFFFFFFFFFFFFFFFFFFFFFFFFFFFFFF SWAP2 SWAP1 SWAP2 AND DUP2 MSTORE PUSH1 0x20 ADD SWAP1 JUMP JUMPDEST PUSH1 0x0 PUSH1 0x60 DUP3 MSTORE PUSH3 0x5A4 PUSH1 0x60 DUP4 ADD DUP8 DUP10 PUSH3 0x44C JUMP JUMPDEST PUSH20 0xFFFFFFFFFFFFFFFFFFFFFFFFFFFFFFFFFFFFFFFF DUP7 AND PUSH1 0x20 DUP5 ADD MSTORE DUP3 DUP2 SUB PUSH1 0x40 DUP5 ADD MSTORE DUP4 DUP2 MSTORE DUP4 DUP6 PUSH1 0x20 DUP4 ADD CALLDATACOPY DUP2 PUSH1 0x20 DUP6 DUP4 ADD ADD MSTORE PUSH1 0x20 PUSH1 0x1F NOT PUSH1 0x1F DUP7 ADD AND DUP3 ADD ADD SWAP2 POP POP SWAP7 SWAP6 POP POP POP POP POP POP JUMP JUMPDEST PUSH1 0x0 PUSH1 0x40 DUP3 MSTORE PUSH3 0x60A PUSH1 0x40 DUP4 ADD DUP6 DUP8 PUSH3 0x44C JUMP JUMPDEST SWAP1 POP PUSH20 0xFFFFFFFFFFFFFFFFFFFFFFFFFFFFFFFFFFFFFFFF DUP4 MLOAD AND PUSH1 0x20 DUP4 ADD MSTORE SWAP5 SWAP4 POP POP POP POP JUMP JUMPDEST PUSH1 0x0 DUP1 DUP4 CALLDATALOAD PUSH32 0xFFFFFFFFFFFFFFFFFFFFFFFFFFFFFFFFFFFFFFFFFFFFFFFFFFFFFFFFFFFFFFE1 DUP5 CALLDATASIZE SUB ADD DUP2 SLT PUSH3 0x666 JUMPI DUP3 DUP4 REVERT JUMPDEST DUP4 ADD PUSH1 0x20 DUP2 ADD SWAP3 POP CALLDATALOAD SWAP1 POP PUSH8 0xFFFFFFFFFFFFFFFF DUP2 GT ISZERO PUSH3 0x687 JUMPI PUSH1 0x0 DUP1 REVERT JUMPDEST PUSH1 0x20 DUP2 MUL CALLDATASIZE SUB DUP4 SGT ISZERO PUSH3 0x305 JUMPI PUSH1 0x0 DUP1 REVERT JUMPDEST PUSH1 0x0 DUP3 CALLDATALOAD PUSH1 0x3 DUP2 LT PUSH3 0x6AB JUMPI DUP2 DUP3 REVERT JUMPDEST SWAP4 SWAP3 POP POP POP JUMP INVALID PUSH1 0x80 PUSH1 0x40 MSTORE PUSH1 0x40 MLOAD PUSH3 0x2335 CODESIZE SUB DUP1 PUSH3 0x2335 DUP4 CODECOPY DUP2 ADD PUSH1 0x40 DUP2 SWAP1 MSTORE PUSH3 0x26 SWAP2 PUSH3 0xA57 JUMP JUMPDEST PUSH1 0x40 DUP1 MLOAD PUSH1 0x0 DUP1 DUP3 MSTORE PUSH1 0x20 DUP3 ADD SWAP1 SWAP3 MSTORE PUSH3 0x4E SWAP2 DUP5 SWAP2 PUSH3 0xF5 PUSH1 0x20 SHL PUSH3 0x8F OR PUSH1 0x20 SHR JUMP JUMPDEST PUSH3 0x68 DUP2 PUSH1 0x0 ADD MLOAD PUSH3 0x23C PUSH1 0x20 SHL PUSH3 0x1DD OR PUSH1 0x20 SHR JUMP JUMPDEST PUSH1 0x0 PUSH3 0x7F PUSH3 0x29E PUSH1 0x20 SHL PUSH3 0x255 OR PUSH1 0x20 SHR JUMP JUMPDEST PUSH4 0x1FFC9A7 PUSH1 0xE0 SHL PUSH1 0x0 SWAP1 DUP2 MSTORE PUSH1 0x3 SWAP1 SWAP2 ADD PUSH1 0x20 MSTORE PUSH1 0x40 DUP1 DUP3 KECCAK256 DUP1 SLOAD PUSH1 0xFF NOT SWAP1 DUP2 AND PUSH1 0x1 SWAP1 DUP2 OR SWAP1 SWAP3 SSTORE PUSH4 0x7E4C707 PUSH1 0xE2 SHL DUP5 MSTORE DUP3 DUP5 KECCAK256 DUP1 SLOAD DUP3 AND DUP4 OR SWAP1 SSTORE PUSH4 0x48E2B093 PUSH1 0xE0 SHL DUP5 MSTORE DUP3 DUP5 KECCAK256 DUP1 SLOAD DUP3 AND DUP4 OR SWAP1 SSTORE PUSH4 0x7F5828D PUSH1 0xE4 SHL DUP5 MSTORE SWAP2 SWAP1 SWAP3 KECCAK256 DUP1 SLOAD SWAP1 SWAP2 AND SWAP1 SWAP2 OR SWAP1 SSTORE POP PUSH3 0x11D8 SWAP2 POP POP JUMP JUMPDEST PUSH1 0x0 PUSH3 0x101 PUSH3 0x29E JUMP JUMPDEST PUSH1 0x2 DUP2 ADD SLOAD SWAP1 SWAP2 POP PUSH2 0xFFFF AND DUP1 PUSH1 0x0 DUP1 PUSH1 0x8 DUP4 MOD GT ISZERO PUSH3 0x133 JUMPI POP PUSH1 0x8 DUP2 DIV PUSH1 0x0 SWAP1 DUP2 MSTORE PUSH1 0x1 DUP5 ADD PUSH1 0x20 MSTORE PUSH1 0x40 SWAP1 KECCAK256 SLOAD JUMPDEST PUSH1 0x0 JUMPDEST DUP8 MLOAD DUP2 LT ISZERO PUSH3 0x1AB JUMPI PUSH3 0x19D DUP4 DUP4 DUP11 DUP5 DUP2 MLOAD DUP2 LT PUSH3 0x153 JUMPI INVALID JUMPDEST PUSH1 0x20 MUL PUSH1 0x20 ADD ADD MLOAD PUSH1 0x0 ADD MLOAD DUP12 DUP6 DUP2 MLOAD DUP2 LT PUSH3 0x16C JUMPI INVALID JUMPDEST PUSH1 0x20 MUL PUSH1 0x20 ADD ADD MLOAD PUSH1 0x20 ADD MLOAD DUP13 DUP7 DUP2 MLOAD DUP2 LT PUSH3 0x185 JUMPI INVALID JUMPDEST PUSH1 0x20 MUL PUSH1 0x20 ADD ADD MLOAD PUSH1 0x40 ADD MLOAD PUSH3 0x2C2 PUSH1 0x20 SHL PUSH1 0x20 SHR JUMP JUMPDEST SWAP1 SWAP4 POP SWAP2 POP PUSH1 0x1 ADD PUSH3 0x136 JUMP JUMPDEST POP DUP3 DUP3 EQ PUSH3 0x1C8 JUMPI PUSH1 0x2 DUP5 ADD DUP1 SLOAD PUSH2 0xFFFF NOT AND PUSH2 0xFFFF DUP5 AND OR SWAP1 SSTORE JUMPDEST PUSH1 0x7 DUP3 AND ISZERO PUSH3 0x1EA JUMPI PUSH1 0x8 DUP3 DIV PUSH1 0x0 SWAP1 DUP2 MSTORE PUSH1 0x1 DUP6 ADD PUSH1 0x20 MSTORE PUSH1 0x40 SWAP1 KECCAK256 DUP2 SWAP1 SSTORE JUMPDEST PUSH32 0x8FAA70878671CCD212D20771B795C50AF8FD3FF6CF27F4BDE57E5D4DE0AEB673 DUP8 DUP8 DUP8 PUSH1 0x40 MLOAD PUSH3 0x21F SWAP4 SWAP3 SWAP2 SWAP1 PUSH3 0xC11 JUMP JUMPDEST PUSH1 0x40 MLOAD DUP1 SWAP2 SUB SWAP1 LOG1 PUSH3 0x233 DUP7 DUP7 PUSH3 0x802 JUMP JUMPDEST POP POP POP POP POP POP POP JUMP JUMPDEST PUSH1 0x0 PUSH3 0x248 PUSH3 0x29E JUMP JUMPDEST PUSH1 0x4 DUP2 ADD DUP1 SLOAD PUSH1 0x1 PUSH1 0x1 PUSH1 0xA0 SHL SUB DUP6 DUP2 AND PUSH1 0x1 PUSH1 0x1 PUSH1 0xA0 SHL SUB NOT DUP4 AND DUP2 OR SWAP1 SWAP4 SSTORE PUSH1 0x40 MLOAD SWAP4 SWAP5 POP AND SWAP2 DUP3 SWAP1 PUSH32 0x8BE0079C531659141344CD1FD0A4F28419497F9722A3DAAFE3B4186F6B6457E0 SWAP1 PUSH1 0x0 SWAP1 LOG3 POP POP POP JUMP JUMPDEST PUSH32 0xC8FCAD8DB84D3CC18B4C41D551EA0EE66DD599CDE068D998E57D5E09332C131C SWAP1 JUMP JUMPDEST PUSH1 0x0 DUP1 DUP1 PUSH3 0x2D0 PUSH3 0x29E JUMP JUMPDEST SWAP1 POP PUSH1 0x0 DUP5 MLOAD GT PUSH3 0x2FF JUMPI PUSH1 0x40 MLOAD PUSH3 0x461BCD PUSH1 0xE5 SHL DUP2 MSTORE PUSH1 0x4 ADD PUSH3 0x2F6 SWAP1 PUSH3 0xD8B JUMP JUMPDEST PUSH1 0x40 MLOAD DUP1 SWAP2 SUB SWAP1 REVERT JUMPDEST PUSH1 0x0 DUP6 PUSH1 0x2 DUP2 GT ISZERO PUSH3 0x30E JUMPI INVALID JUMPDEST EQ ISZERO PUSH3 0x447 JUMPI PUSH1 0x1 PUSH1 0x1 PUSH1 0xA0 SHL SUB DUP7 AND PUSH3 0x33E JUMPI PUSH1 0x40 MLOAD PUSH3 0x461BCD PUSH1 0xE5 SHL DUP2 MSTORE PUSH1 0x4 ADD PUSH3 0x2F6 SWAP1 PUSH3 0xE7A JUMP JUMPDEST PUSH3 0x363 DUP7 PUSH1 0x40 MLOAD DUP1 PUSH1 0x60 ADD PUSH1 0x40 MSTORE DUP1 PUSH1 0x24 DUP2 MSTORE PUSH1 0x20 ADD PUSH3 0x22C1 PUSH1 0x24 SWAP2 CODECOPY PUSH3 0x943 JUMP JUMPDEST PUSH1 0x0 JUMPDEST DUP5 MLOAD DUP2 LT ISZERO PUSH3 0x440 JUMPI PUSH1 0x0 DUP6 DUP3 DUP2 MLOAD DUP2 LT PUSH3 0x37F JUMPI INVALID JUMPDEST PUSH1 0x20 SWAP1 DUP2 MUL SWAP2 SWAP1 SWAP2 ADD DUP2 ADD MLOAD PUSH1 0x1 PUSH1 0x1 PUSH1 0xE0 SHL SUB NOT DUP2 AND PUSH1 0x0 SWAP1 DUP2 MSTORE SWAP2 DUP6 SWAP1 MSTORE PUSH1 0x40 SWAP1 SWAP2 KECCAK256 SLOAD SWAP1 SWAP2 POP PUSH1 0x60 DUP2 SWAP1 SHR ISZERO PUSH3 0x3CD JUMPI PUSH1 0x40 MLOAD PUSH3 0x461BCD PUSH1 0xE5 SHL DUP2 MSTORE PUSH1 0x4 ADD PUSH3 0x2F6 SWAP1 PUSH3 0xFC1 JUMP JUMPDEST PUSH1 0x1 PUSH1 0x1 PUSH1 0xE0 SHL SUB NOT DUP3 DUP2 AND PUSH1 0x0 DUP2 DUP2 MSTORE PUSH1 0x20 DUP8 DUP2 MSTORE PUSH1 0x40 SWAP1 SWAP2 KECCAK256 PUSH1 0x1 PUSH1 0x1 PUSH1 0x60 SHL SUB NOT PUSH1 0x60 DUP15 SWAP1 SHL AND DUP16 OR SWAP1 SSTORE PUSH1 0x7 DUP15 AND MUL SWAP1 DUP2 SHR SWAP2 DUP2 SHR NOT SWAP12 SWAP1 SWAP12 AND OR SWAP10 PUSH1 0xE0 DUP2 EQ ISZERO PUSH3 0x430 JUMPI PUSH1 0x8 DUP13 DIV PUSH1 0x0 SWAP1 DUP2 MSTORE PUSH1 0x1 DUP7 ADD PUSH1 0x20 MSTORE PUSH1 0x40 DUP2 KECCAK256 SWAP12 SWAP1 SWAP12 SSTORE JUMPDEST POP POP POP PUSH1 0x1 SWAP9 DUP10 ADD SWAP9 ADD PUSH3 0x366 JUMP JUMPDEST POP PUSH3 0x7F6 JUMP JUMPDEST PUSH1 0x1 DUP6 PUSH1 0x2 DUP2 GT ISZERO PUSH3 0x456 JUMPI INVALID JUMPDEST EQ ISZERO PUSH3 0x5B8 JUMPI PUSH1 0x1 PUSH1 0x1 PUSH1 0xA0 SHL SUB DUP7 AND PUSH3 0x486 JUMPI PUSH1 0x40 MLOAD PUSH3 0x461BCD PUSH1 0xE5 SHL DUP2 MSTORE PUSH1 0x4 ADD PUSH3 0x2F6 SWAP1 PUSH3 0xEC6 JUMP JUMPDEST PUSH3 0x4AB DUP7 PUSH1 0x40 MLOAD DUP1 PUSH1 0x60 ADD PUSH1 0x40 MSTORE DUP1 PUSH1 0x28 DUP2 MSTORE PUSH1 0x20 ADD PUSH3 0x230D PUSH1 0x28 SWAP2 CODECOPY PUSH3 0x943 JUMP JUMPDEST PUSH1 0x0 JUMPDEST DUP5 MLOAD DUP2 LT ISZERO PUSH3 0x440 JUMPI PUSH1 0x0 DUP6 DUP3 DUP2 MLOAD DUP2 LT PUSH3 0x4C7 JUMPI INVALID JUMPDEST PUSH1 0x20 SWAP1 DUP2 MUL SWAP2 SWAP1 SWAP2 ADD DUP2 ADD MLOAD PUSH1 0x1 PUSH1 0x1 PUSH1 0xE0 SHL SUB NOT DUP2 AND PUSH1 0x0 SWAP1 DUP2 MSTORE SWAP2 DUP6 SWAP1 MSTORE PUSH1 0x40 SWAP1 SWAP2 KECCAK256 SLOAD SWAP1 SWAP2 POP PUSH1 0x60 DUP2 SWAP1 SHR ADDRESS DUP2 EQ ISZERO PUSH3 0x518 JUMPI PUSH1 0x40 MLOAD PUSH3 0x461BCD PUSH1 0xE5 SHL DUP2 MSTORE PUSH1 0x4 ADD PUSH3 0x2F6 SWAP1 PUSH3 0x10C7 JUMP JUMPDEST DUP10 PUSH1 0x1 PUSH1 0x1 PUSH1 0xA0 SHL SUB AND DUP2 PUSH1 0x1 PUSH1 0x1 PUSH1 0xA0 SHL SUB AND EQ ISZERO PUSH3 0x54D JUMPI PUSH1 0x40 MLOAD PUSH3 0x461BCD PUSH1 0xE5 SHL DUP2 MSTORE PUSH1 0x4 ADD PUSH3 0x2F6 SWAP1 PUSH3 0x101E JUMP JUMPDEST PUSH1 0x1 PUSH1 0x1 PUSH1 0xA0 SHL SUB DUP2 AND PUSH3 0x576 JUMPI PUSH1 0x40 MLOAD PUSH3 0x461BCD PUSH1 0xE5 SHL DUP2 MSTORE PUSH1 0x4 ADD PUSH3 0x2F6 SWAP1 PUSH3 0x1116 JUMP JUMPDEST POP PUSH1 0x1 PUSH1 0x1 PUSH1 0xE0 SHL SUB NOT SWAP1 SWAP2 AND PUSH1 0x0 SWAP1 DUP2 MSTORE PUSH1 0x20 DUP5 SWAP1 MSTORE PUSH1 0x40 SWAP1 KECCAK256 PUSH1 0x1 PUSH1 0x1 PUSH1 0x60 SHL SUB SWAP2 SWAP1 SWAP2 AND PUSH1 0x1 PUSH1 0x1 PUSH1 0x60 SHL SUB NOT PUSH1 0x60 DUP11 SWAP1 SHL AND OR SWAP1 SSTORE PUSH1 0x1 ADD PUSH3 0x4AE JUMP JUMPDEST PUSH1 0x2 DUP6 PUSH1 0x2 DUP2 GT ISZERO PUSH3 0x5C7 JUMPI INVALID JUMPDEST EQ ISZERO PUSH3 0x7DC JUMPI PUSH1 0x1 PUSH1 0x1 PUSH1 0xA0 SHL SUB DUP7 AND ISZERO PUSH3 0x5F8 JUMPI PUSH1 0x40 MLOAD PUSH3 0x461BCD PUSH1 0xE5 SHL DUP2 MSTORE PUSH1 0x4 ADD PUSH3 0x2F6 SWAP1 PUSH3 0x106A JUMP JUMPDEST PUSH1 0x8 DUP9 DIV PUSH1 0x0 NOT PUSH1 0x7 DUP11 AND ADD PUSH1 0x0 JUMPDEST DUP7 MLOAD DUP2 LT ISZERO PUSH3 0x7CA JUMPI DUP10 PUSH3 0x636 JUMPI PUSH1 0x0 NOT SWAP1 SWAP3 ADD PUSH1 0x0 DUP2 DUP2 MSTORE PUSH1 0x1 DUP6 ADD PUSH1 0x20 MSTORE PUSH1 0x40 SWAP1 KECCAK256 SLOAD SWAP10 POP SWAP2 PUSH1 0x7 SWAP2 POP JUMPDEST PUSH1 0x0 DUP1 PUSH1 0x0 DUP1 DUP11 DUP6 DUP2 MLOAD DUP2 LT PUSH3 0x649 JUMPI INVALID JUMPDEST PUSH1 0x20 SWAP1 DUP2 MUL SWAP2 SWAP1 SWAP2 ADD DUP2 ADD MLOAD PUSH1 0x1 PUSH1 0x1 PUSH1 0xE0 SHL SUB NOT DUP2 AND PUSH1 0x0 SWAP1 DUP2 MSTORE SWAP2 DUP11 SWAP1 MSTORE PUSH1 0x40 SWAP1 SWAP2 KECCAK256 SLOAD SWAP1 SWAP2 POP PUSH1 0x60 DUP2 SWAP1 SHR PUSH3 0x696 JUMPI PUSH1 0x40 MLOAD PUSH3 0x461BCD PUSH1 0xE5 SHL DUP2 MSTORE PUSH1 0x4 ADD PUSH3 0x2F6 SWAP1 PUSH3 0xDD6 JUMP JUMPDEST PUSH1 0x60 DUP2 SWAP1 SHR ADDRESS EQ ISZERO PUSH3 0x6BD JUMPI PUSH1 0x40 MLOAD PUSH3 0x461BCD PUSH1 0xE5 SHL DUP2 MSTORE PUSH1 0x4 ADD PUSH3 0x2F6 SWAP1 PUSH3 0xF73 JUMP JUMPDEST PUSH1 0x20 DUP8 MUL DUP16 SWAP1 SHL SWAP5 POP PUSH1 0x1 PUSH1 0x1 PUSH1 0xE0 SHL SUB NOT DUP1 DUP7 AND SWAP1 DUP4 AND EQ PUSH3 0x70E JUMPI PUSH1 0x1 PUSH1 0x1 PUSH1 0xE0 SHL SUB NOT DUP6 AND PUSH1 0x0 SWAP1 DUP2 MSTORE PUSH1 0x20 DUP11 SWAP1 MSTORE PUSH1 0x40 SWAP1 KECCAK256 DUP1 SLOAD PUSH1 0x1 PUSH1 0x1 PUSH1 0x60 SHL SUB NOT AND PUSH1 0x1 PUSH1 0x1 PUSH1 0x60 SHL SUB DUP4 AND OR SWAP1 SSTORE JUMPDEST PUSH1 0x1 PUSH1 0x1 PUSH1 0xE0 SHL SUB NOT DUP3 AND PUSH1 0x0 SWAP1 DUP2 MSTORE PUSH1 0x20 DUP11 SWAP1 MSTORE PUSH1 0x40 DUP2 KECCAK256 SSTORE PUSH2 0xFFFF DUP2 AND PUSH1 0x8 DUP2 DIV SWAP5 POP PUSH1 0x8 DUP2 MOD PUSH1 0x20 MUL SWAP4 POP POP POP POP DUP6 DUP3 EQ PUSH3 0x777 JUMPI PUSH1 0x0 DUP3 DUP2 MSTORE PUSH1 0x1 DUP9 ADD PUSH1 0x20 MSTORE PUSH1 0x40 SWAP1 KECCAK256 DUP1 SLOAD PUSH1 0x1 PUSH1 0x1 PUSH1 0xE0 SHL SUB NOT DUP1 DUP5 SHR NOT SWAP1 SWAP2 AND SWAP1 DUP6 AND DUP4 SHR OR SWAP1 SSTORE PUSH3 0x79B JUMP JUMPDEST DUP1 DUP4 PUSH1 0x1 PUSH1 0x1 PUSH1 0xE0 SHL SUB NOT AND SWAP1 SHR DUP2 PUSH1 0x1 PUSH1 0x1 PUSH1 0xE0 SHL SUB NOT PUSH1 0x0 SHL SWAP1 SHR NOT DUP15 AND OR SWAP13 POP JUMPDEST DUP5 PUSH3 0x7B7 JUMPI PUSH1 0x0 DUP7 DUP2 MSTORE PUSH1 0x1 DUP9 ADD PUSH1 0x20 MSTORE PUSH1 0x40 DUP2 KECCAK256 DUP2 SWAP1 SSTORE SWAP13 POP JUMPDEST POP POP PUSH1 0x0 NOT SWAP1 SWAP3 ADD SWAP2 POP PUSH1 0x1 ADD PUSH3 0x607 JUMP JUMPDEST POP PUSH1 0x1 PUSH1 0x8 SWAP1 SWAP3 MUL ADD ADD SWAP8 POP PUSH3 0x7F6 JUMP JUMPDEST PUSH1 0x40 MLOAD PUSH3 0x461BCD PUSH1 0xE5 SHL DUP2 MSTORE PUSH1 0x4 ADD PUSH3 0x2F6 SWAP1 PUSH3 0xE33 JUMP JUMPDEST POP SWAP6 SWAP7 SWAP5 SWAP6 POP POP POP POP POP JUMP JUMPDEST PUSH1 0x1 PUSH1 0x1 PUSH1 0xA0 SHL SUB DUP3 AND PUSH3 0x839 JUMPI DUP1 MLOAD ISZERO PUSH3 0x833 JUMPI PUSH1 0x40 MLOAD PUSH3 0x461BCD PUSH1 0xE5 SHL DUP2 MSTORE PUSH1 0x4 ADD PUSH3 0x2F6 SWAP1 PUSH3 0xCE8 JUMP JUMPDEST PUSH3 0x93F JUMP JUMPDEST PUSH1 0x0 DUP2 MLOAD GT PUSH3 0x85D JUMPI PUSH1 0x40 MLOAD PUSH3 0x461BCD PUSH1 0xE5 SHL DUP2 MSTORE PUSH1 0x4 ADD PUSH3 0x2F6 SWAP1 PUSH3 0xF16 JUMP JUMPDEST PUSH1 0x1 PUSH1 0x1 PUSH1 0xA0 SHL SUB DUP3 AND ADDRESS EQ PUSH3 0x893 JUMPI PUSH3 0x893 DUP3 PUSH1 0x40 MLOAD DUP1 PUSH1 0x60 ADD PUSH1 0x40 MSTORE DUP1 PUSH1 0x28 DUP2 MSTORE PUSH1 0x20 ADD PUSH3 0x22E5 PUSH1 0x28 SWAP2 CODECOPY PUSH3 0x943 JUMP JUMPDEST PUSH1 0x0 PUSH1 0x60 DUP4 PUSH1 0x1 PUSH1 0x1 PUSH1 0xA0 SHL SUB AND DUP4 PUSH1 0x40 MLOAD PUSH3 0x8B1 SWAP2 SWAP1 PUSH3 0xBF3 JUMP JUMPDEST PUSH1 0x0 PUSH1 0x40 MLOAD DUP1 DUP4 SUB DUP2 DUP6 GAS DELEGATECALL SWAP2 POP POP RETURNDATASIZE DUP1 PUSH1 0x0 DUP2 EQ PUSH3 0x8EE JUMPI PUSH1 0x40 MLOAD SWAP2 POP PUSH1 0x1F NOT PUSH1 0x3F RETURNDATASIZE ADD AND DUP3 ADD PUSH1 0x40 MSTORE RETURNDATASIZE DUP3 MSTORE RETURNDATASIZE PUSH1 0x0 PUSH1 0x20 DUP5 ADD RETURNDATACOPY PUSH3 0x8F3 JUMP JUMPDEST PUSH1 0x60 SWAP2 POP JUMPDEST POP SWAP2 POP SWAP2 POP DUP2 PUSH3 0x93C JUMPI DUP1 MLOAD ISZERO PUSH3 0x922 JUMPI DUP1 PUSH1 0x40 MLOAD PUSH3 0x461BCD PUSH1 0xE5 SHL DUP2 MSTORE PUSH1 0x4 ADD PUSH3 0x2F6 SWAP2 SWAP1 PUSH3 0xCCC JUMP JUMPDEST PUSH1 0x40 MLOAD PUSH3 0x461BCD PUSH1 0xE5 SHL DUP2 MSTORE PUSH1 0x4 ADD PUSH3 0x2F6 SWAP1 PUSH3 0xD45 JUMP JUMPDEST POP POP JUMPDEST POP POP JUMP JUMPDEST DUP2 EXTCODESIZE DUP2 DUP2 PUSH3 0x93C JUMPI PUSH1 0x40 MLOAD PUSH3 0x461BCD PUSH1 0xE5 SHL DUP2 MSTORE PUSH1 0x4 ADD PUSH3 0x2F6 SWAP2 SWAP1 PUSH3 0xCCC JUMP JUMPDEST DUP1 MLOAD PUSH1 0x1 PUSH1 0x1 PUSH1 0xA0 SHL SUB DUP2 AND DUP2 EQ PUSH3 0x97F JUMPI PUSH1 0x0 DUP1 REVERT JUMPDEST SWAP3 SWAP2 POP POP JUMP JUMPDEST PUSH1 0x0 DUP3 PUSH1 0x1F DUP4 ADD SLT PUSH3 0x996 JUMPI DUP1 DUP2 REVERT JUMPDEST DUP2 MLOAD PUSH3 0x9AD PUSH3 0x9A7 DUP3 PUSH3 0x1189 JUMP JUMPDEST PUSH3 0x1162 JUMP JUMPDEST DUP2 DUP2 MSTORE SWAP2 POP PUSH1 0x20 DUP1 DUP4 ADD SWAP1 DUP5 DUP2 ADD DUP2 DUP5 MUL DUP7 ADD DUP3 ADD DUP8 LT ISZERO PUSH3 0x9CF JUMPI PUSH1 0x0 DUP1 REVERT JUMPDEST PUSH1 0x0 DUP1 JUMPDEST DUP6 DUP2 LT ISZERO PUSH3 0xA07 JUMPI DUP3 MLOAD PUSH1 0x1 PUSH1 0x1 PUSH1 0xE0 SHL SUB NOT DUP2 AND DUP2 EQ PUSH3 0x9F4 JUMPI DUP3 DUP4 REVERT JUMPDEST DUP6 MSTORE SWAP4 DUP4 ADD SWAP4 SWAP2 DUP4 ADD SWAP2 PUSH1 0x1 ADD PUSH3 0x9D3 JUMP JUMPDEST POP POP POP POP POP POP SWAP3 SWAP2 POP POP JUMP JUMPDEST DUP1 MLOAD PUSH1 0x3 DUP2 LT PUSH3 0x97F JUMPI PUSH1 0x0 DUP1 REVERT JUMPDEST PUSH1 0x0 PUSH1 0x20 DUP3 DUP5 SUB SLT ISZERO PUSH3 0xA35 JUMPI DUP1 DUP2 REVERT JUMPDEST PUSH3 0xA41 PUSH1 0x20 PUSH3 0x1162 JUMP JUMPDEST SWAP1 POP PUSH3 0xA4F DUP4 DUP4 PUSH3 0x967 JUMP JUMPDEST DUP2 MSTORE SWAP3 SWAP2 POP POP JUMP JUMPDEST PUSH1 0x0 DUP1 PUSH1 0x40 DUP4 DUP6 SUB SLT ISZERO PUSH3 0xA6A JUMPI DUP2 DUP3 REVERT JUMPDEST DUP3 MLOAD PUSH1 0x1 PUSH1 0x1 PUSH1 0x40 SHL SUB DUP1 DUP3 GT ISZERO PUSH3 0xA81 JUMPI DUP4 DUP5 REVERT JUMPDEST DUP2 DUP6 ADD SWAP2 POP DUP6 PUSH1 0x1F DUP4 ADD SLT PUSH3 0xA95 JUMPI DUP4 DUP5 REVERT JUMPDEST DUP2 MLOAD PUSH3 0xAA6 PUSH3 0x9A7 DUP3 PUSH3 0x1189 JUMP JUMPDEST DUP2 DUP2 MSTORE PUSH1 0x20 DUP1 DUP3 ADD SWAP2 SWAP1 DUP6 DUP2 ADD DUP9 JUMPDEST DUP6 DUP2 LT ISZERO PUSH3 0xB41 JUMPI DUP2 MLOAD DUP9 ADD PUSH1 0x60 DUP2 DUP15 SUB PUSH1 0x1F NOT ADD SLT ISZERO PUSH3 0xAD6 JUMPI DUP11 DUP12 REVERT JUMPDEST PUSH3 0xAE2 PUSH1 0x60 PUSH3 0x1162 JUMP JUMPDEST PUSH3 0xAF0 DUP15 DUP7 DUP5 ADD PUSH3 0x967 JUMP JUMPDEST DUP2 MSTORE PUSH3 0xB01 DUP15 PUSH1 0x40 DUP5 ADD PUSH3 0xA13 JUMP JUMPDEST DUP6 DUP3 ADD MSTORE PUSH1 0x60 DUP3 ADD MLOAD DUP10 DUP2 GT ISZERO PUSH3 0xB17 JUMPI DUP13 DUP14 REVERT JUMPDEST PUSH3 0xB27 DUP16 DUP8 DUP4 DUP7 ADD ADD PUSH3 0x985 JUMP JUMPDEST PUSH1 0x40 DUP4 ADD MSTORE POP DUP7 MSTORE POP SWAP4 DUP3 ADD SWAP4 SWAP1 DUP3 ADD SWAP1 PUSH1 0x1 ADD PUSH3 0xAB5 JUMP JUMPDEST POP POP DUP2 SWAP8 POP PUSH3 0xB54 DUP11 DUP3 DUP12 ADD PUSH3 0xA23 JUMP JUMPDEST SWAP7 POP POP POP POP POP POP POP SWAP3 POP SWAP3 SWAP1 POP JUMP JUMPDEST PUSH1 0x1 PUSH1 0x1 PUSH1 0xA0 SHL SUB AND SWAP1 MSTORE JUMP JUMPDEST PUSH1 0x0 DUP2 MLOAD DUP1 DUP5 MSTORE PUSH1 0x20 DUP1 DUP6 ADD SWAP5 POP DUP1 DUP5 ADD DUP4 JUMPDEST DUP4 DUP2 LT ISZERO PUSH3 0xBAB JUMPI DUP2 MLOAD PUSH1 0x1 PUSH1 0x1 PUSH1 0xE0 SHL SUB NOT AND DUP8 MSTORE SWAP6 DUP3 ADD SWAP6 SWAP1 DUP3 ADD SWAP1 PUSH1 0x1 ADD PUSH3 0xB83 JUMP JUMPDEST POP SWAP5 SWAP6 SWAP5 POP POP POP POP POP JUMP JUMPDEST PUSH1 0x0 DUP2 MLOAD DUP1 DUP5 MSTORE PUSH3 0xBD0 DUP2 PUSH1 0x20 DUP7 ADD PUSH1 0x20 DUP7 ADD PUSH3 0x11A9 JUMP JUMPDEST PUSH1 0x1F ADD PUSH1 0x1F NOT AND SWAP3 SWAP1 SWAP3 ADD PUSH1 0x20 ADD SWAP3 SWAP2 POP POP JUMP JUMPDEST PUSH1 0x3 DUP2 LT PUSH3 0xBEF JUMPI INVALID JUMPDEST SWAP1 MSTORE JUMP JUMPDEST PUSH1 0x0 DUP3 MLOAD PUSH3 0xC07 DUP2 DUP5 PUSH1 0x20 DUP8 ADD PUSH3 0x11A9 JUMP JUMPDEST SWAP2 SWAP1 SWAP2 ADD SWAP3 SWAP2 POP POP JUMP JUMPDEST PUSH1 0x0 PUSH1 0x60 DUP1 DUP4 ADD DUP2 DUP5 MSTORE DUP1 DUP8 MLOAD DUP1 DUP4 MSTORE PUSH1 0x80 DUP7 ADD SWAP2 POP PUSH1 0x20 SWAP3 POP PUSH1 0x80 DUP4 DUP3 MUL DUP8 ADD ADD DUP4 DUP11 ADD DUP7 JUMPDEST DUP4 DUP2 LT ISZERO PUSH3 0xC9A JUMPI PUSH1 0x7F NOT DUP10 DUP5 SUB ADD DUP6 MSTORE DUP2 MLOAD PUSH3 0xC59 DUP5 DUP3 MLOAD PUSH3 0xB63 JUMP JUMPDEST DUP7 DUP2 ADD MLOAD PUSH3 0xC6B DUP9 DUP7 ADD DUP3 PUSH3 0xBE4 JUMP JUMPDEST POP PUSH1 0x40 SWAP1 DUP2 ADD MLOAD SWAP1 DUP5 ADD DUP9 SWAP1 MSTORE PUSH3 0xC86 DUP5 DUP10 ADD DUP3 PUSH3 0xB70 JUMP JUMPDEST SWAP6 DUP8 ADD SWAP6 SWAP4 POP POP SWAP1 DUP6 ADD SWAP1 PUSH1 0x1 ADD PUSH3 0xC38 JUMP JUMPDEST POP POP PUSH3 0xCAA DUP5 DUP9 ADD DUP11 PUSH3 0xB63 JUMP JUMPDEST DUP7 DUP2 SUB PUSH1 0x40 DUP9 ADD MSTORE PUSH3 0xCBE DUP2 DUP10 PUSH3 0xBB6 JUMP JUMPDEST SWAP11 SWAP10 POP POP POP POP POP POP POP POP POP POP JUMP JUMPDEST PUSH1 0x0 PUSH1 0x20 DUP3 MSTORE PUSH3 0xCE1 PUSH1 0x20 DUP4 ADD DUP5 PUSH3 0xBB6 JUMP JUMPDEST SWAP4 SWAP3 POP POP POP JUMP JUMPDEST PUSH1 0x20 DUP1 DUP3 MSTORE PUSH1 0x3C SWAP1 DUP3 ADD MSTORE PUSH32 0x4C69624469616D6F6E644375743A205F696E6974206973206164647265737328 PUSH1 0x40 DUP3 ADD MSTORE PUSH32 0x3029206275745F63616C6C64617461206973206E6F7420656D70747900000000 PUSH1 0x60 DUP3 ADD MSTORE PUSH1 0x80 ADD SWAP1 JUMP JUMPDEST PUSH1 0x20 DUP1 DUP3 MSTORE PUSH1 0x26 SWAP1 DUP3 ADD MSTORE PUSH32 0x4C69624469616D6F6E644375743A205F696E69742066756E6374696F6E207265 PUSH1 0x40 DUP3 ADD MSTORE PUSH6 0x1D995C9D1959 PUSH1 0xD2 SHL PUSH1 0x60 DUP3 ADD MSTORE PUSH1 0x80 ADD SWAP1 JUMP JUMPDEST PUSH1 0x20 DUP1 DUP3 MSTORE PUSH1 0x2B SWAP1 DUP3 ADD MSTORE PUSH32 0x4C69624469616D6F6E644375743A204E6F2073656C6563746F727320696E2066 PUSH1 0x40 DUP3 ADD MSTORE PUSH11 0x1858D95D081D1BC818DD5D PUSH1 0xAA SHL PUSH1 0x60 DUP3 ADD MSTORE PUSH1 0x80 ADD SWAP1 JUMP JUMPDEST PUSH1 0x20 DUP1 DUP3 MSTORE PUSH1 0x37 SWAP1 DUP3 ADD MSTORE PUSH32 0x4C69624469616D6F6E644375743A2043616E27742072656D6F76652066756E63 PUSH1 0x40 DUP3 ADD MSTORE PUSH32 0x74696F6E207468617420646F65736E2774206578697374000000000000000000 PUSH1 0x60 DUP3 ADD MSTORE PUSH1 0x80 ADD SWAP1 JUMP JUMPDEST PUSH1 0x20 DUP1 DUP3 MSTORE PUSH1 0x27 SWAP1 DUP3 ADD MSTORE PUSH32 0x4C69624469616D6F6E644375743A20496E636F72726563742046616365744375 PUSH1 0x40 DUP3 ADD MSTORE PUSH7 0x3A20B1BA34B7B7 PUSH1 0xC9 SHL PUSH1 0x60 DUP3 ADD MSTORE PUSH1 0x80 ADD SWAP1 JUMP JUMPDEST PUSH1 0x20 DUP1 DUP3 MSTORE PUSH1 0x2C SWAP1 DUP3 ADD MSTORE PUSH32 0x4C69624469616D6F6E644375743A204164642066616365742063616E27742062 PUSH1 0x40 DUP3 ADD MSTORE PUSH12 0x652061646472657373283029 PUSH1 0xA0 SHL PUSH1 0x60 DUP3 ADD MSTORE PUSH1 0x80 ADD SWAP1 JUMP JUMPDEST PUSH1 0x20 DUP1 DUP3 MSTORE PUSH1 0x30 SWAP1 DUP3 ADD MSTORE PUSH32 0x4C69624469616D6F6E644375743A205265706C6163652066616365742063616E PUSH1 0x40 DUP3 ADD MSTORE PUSH16 0x27742062652061646472657373283029 PUSH1 0x80 SHL PUSH1 0x60 DUP3 ADD MSTORE PUSH1 0x80 ADD SWAP1 JUMP JUMPDEST PUSH1 0x20 DUP1 DUP3 MSTORE PUSH1 0x3D SWAP1 DUP3 ADD MSTORE PUSH32 0x4C69624469616D6F6E644375743A205F63616C6C6461746120697320656D7074 PUSH1 0x40 DUP3 ADD MSTORE PUSH32 0x7920627574205F696E6974206973206E6F742061646472657373283029000000 PUSH1 0x60 DUP3 ADD MSTORE PUSH1 0x80 ADD SWAP1 JUMP JUMPDEST PUSH1 0x20 DUP1 DUP3 MSTORE PUSH1 0x2E SWAP1 DUP3 ADD MSTORE PUSH32 0x4C69624469616D6F6E644375743A2043616E27742072656D6F766520696D6D75 PUSH1 0x40 DUP3 ADD MSTORE PUSH14 0x3A30B1363290333AB731BA34B7B7 PUSH1 0x91 SHL PUSH1 0x60 DUP3 ADD MSTORE PUSH1 0x80 ADD SWAP1 JUMP JUMPDEST PUSH1 0x20 DUP1 DUP3 MSTORE PUSH1 0x35 SWAP1 DUP3 ADD MSTORE PUSH32 0x4C69624469616D6F6E644375743A2043616E2774206164642066756E6374696F PUSH1 0x40 DUP3 ADD MSTORE PUSH32 0x6E207468617420616C7265616479206578697374730000000000000000000000 PUSH1 0x60 DUP3 ADD MSTORE PUSH1 0x80 ADD SWAP1 JUMP JUMPDEST PUSH1 0x20 DUP1 DUP3 MSTORE PUSH1 0x38 SWAP1 DUP3 ADD MSTORE PUSH1 0x0 DUP1 MLOAD PUSH1 0x20 PUSH3 0x22A1 DUP4 CODECOPY DUP2 MLOAD SWAP2 MSTORE PUSH1 0x40 DUP3 ADD MSTORE PUSH32 0x6374696F6E20776974682073616D652066756E6374696F6E0000000000000000 PUSH1 0x60 DUP3 ADD MSTORE PUSH1 0x80 ADD SWAP1 JUMP JUMPDEST PUSH1 0x20 DUP1 DUP3 MSTORE PUSH1 0x36 SWAP1 DUP3 ADD MSTORE PUSH32 0x4C69624469616D6F6E644375743A2052656D6F76652066616365742061646472 PUSH1 0x40 DUP3 ADD MSTORE PUSH32 0x657373206D757374206265206164647265737328302900000000000000000000 PUSH1 0x60 DUP3 ADD MSTORE PUSH1 0x80 ADD SWAP1 JUMP JUMPDEST PUSH1 0x20 DUP1 DUP3 MSTORE PUSH1 0x2F SWAP1 DUP3 ADD MSTORE PUSH32 0x4C69624469616D6F6E644375743A2043616E2774207265706C61636520696D6D PUSH1 0x40 DUP3 ADD MSTORE PUSH15 0x3ABA30B1363290333AB731BA34B7B7 PUSH1 0x89 SHL PUSH1 0x60 DUP3 ADD MSTORE PUSH1 0x80 ADD SWAP1 JUMP JUMPDEST PUSH1 0x20 DUP1 DUP3 MSTORE PUSH1 0x38 SWAP1 DUP3 ADD MSTORE PUSH1 0x0 DUP1 MLOAD PUSH1 0x20 PUSH3 0x22A1 DUP4 CODECOPY DUP2 MLOAD SWAP2 MSTORE PUSH1 0x40 DUP3 ADD MSTORE PUSH32 0x6374696F6E207468617420646F65736E27742065786973740000000000000000 PUSH1 0x60 DUP3 ADD MSTORE PUSH1 0x80 ADD SWAP1 JUMP JUMPDEST PUSH1 0x40 MLOAD DUP2 DUP2 ADD PUSH1 0x1 PUSH1 0x1 PUSH1 0x40 SHL SUB DUP2 GT DUP3 DUP3 LT OR ISZERO PUSH3 0x1181 JUMPI PUSH1 0x0 DUP1 REVERT JUMPDEST PUSH1 0x40 MSTORE SWAP2 SWAP1 POP JUMP JUMPDEST PUSH1 0x0 PUSH1 0x1 PUSH1 0x1 PUSH1 0x40 SHL SUB DUP3 GT ISZERO PUSH3 0x119F JUMPI DUP1 DUP2 REVERT JUMPDEST POP PUSH1 0x20 SWAP1 DUP2 MUL ADD SWAP1 JUMP JUMPDEST PUSH1 0x0 JUMPDEST DUP4 DUP2 LT ISZERO PUSH3 0x11C6 JUMPI DUP2 DUP2 ADD MLOAD DUP4 DUP3 ADD MSTORE PUSH1 0x20 ADD PUSH3 0x11AC JUMP JUMPDEST DUP4 DUP2 GT ISZERO PUSH3 0x93C JUMPI POP POP PUSH1 0x0 SWAP2 ADD MSTORE JUMP JUMPDEST PUSH2 0x10B9 DUP1 PUSH3 0x11E8 PUSH1 0x0 CODECOPY PUSH1 0x0 RETURN INVALID PUSH1 0x80 PUSH1 0x40 SWAP1 DUP2 MSTORE PUSH1 0x0 DUP1 CALLDATALOAD PUSH1 0x1 PUSH1 0x1 PUSH1 0xE0 SHL SUB NOT AND DUP2 MSTORE PUSH32 0xC8FCAD8DB84D3CC18B4C41D551EA0EE66DD599CDE068D998E57D5E09332C131C PUSH1 0x20 DUP2 SWAP1 MSTORE SWAP2 SWAP1 KECCAK256 SLOAD DUP2 SWAP1 PUSH1 0x60 SHR DUP1 PUSH2 0x6B JUMPI PUSH1 0x40 MLOAD PUSH3 0x461BCD PUSH1 0xE5 SHL DUP2 MSTORE PUSH1 0x4 ADD PUSH2 0x62 SWAP1 PUSH2 0xD23 JUMP JUMPDEST PUSH1 0x40 MLOAD DUP1 SWAP2 SUB SWAP1 REVERT JUMPDEST CALLDATASIZE PUSH1 0x0 DUP1 CALLDATACOPY PUSH1 0x0 DUP1 CALLDATASIZE PUSH1 0x0 DUP5 GAS DELEGATECALL RETURNDATASIZE PUSH1 0x0 DUP1 RETURNDATACOPY DUP1 DUP1 ISZERO PUSH2 0x8A JUMPI RETURNDATASIZE PUSH1 0x0 RETURN JUMPDEST RETURNDATASIZE PUSH1 0x0 REVERT JUMPDEST PUSH1 0x0 PUSH2 0x99 PUSH2 0x255 JUMP JUMPDEST PUSH1 0x2 DUP2 ADD SLOAD SWAP1 SWAP2 POP PUSH2 0xFFFF AND DUP1 PUSH1 0x0 DUP1 PUSH1 0x8 DUP4 MOD GT ISZERO PUSH2 0xCA JUMPI POP PUSH1 0x8 DUP2 DIV PUSH1 0x0 SWAP1 DUP2 MSTORE PUSH1 0x1 DUP5 ADD PUSH1 0x20 MSTORE PUSH1 0x40 SWAP1 KECCAK256 SLOAD JUMPDEST PUSH1 0x0 JUMPDEST DUP8 MLOAD DUP2 LT ISZERO PUSH2 0x135 JUMPI PUSH2 0x128 DUP4 DUP4 DUP11 DUP5 DUP2 MLOAD DUP2 LT PUSH2 0xE7 JUMPI INVALID JUMPDEST PUSH1 0x20 MUL PUSH1 0x20 ADD ADD MLOAD PUSH1 0x0 ADD MLOAD DUP12 DUP6 DUP2 MLOAD DUP2 LT PUSH2 0xFF JUMPI INVALID JUMPDEST PUSH1 0x20 MUL PUSH1 0x20 ADD ADD MLOAD PUSH1 0x20 ADD MLOAD DUP13 DUP7 DUP2 MLOAD DUP2 LT PUSH2 0x117 JUMPI INVALID JUMPDEST PUSH1 0x20 MUL PUSH1 0x20 ADD ADD MLOAD PUSH1 0x40 ADD MLOAD PUSH2 0x279 JUMP JUMPDEST SWAP1 SWAP4 POP SWAP2 POP PUSH1 0x1 ADD PUSH2 0xCD JUMP JUMPDEST POP DUP3 DUP3 EQ PUSH2 0x16E JUMPI PUSH1 0x2 DUP5 ADD DUP1 SLOAD PUSH32 0xFFFFFFFFFFFFFFFFFFFFFFFFFFFFFFFFFFFFFFFFFFFFFFFFFFFFFFFFFFFF0000 AND PUSH2 0xFFFF DUP5 AND OR SWAP1 SSTORE JUMPDEST PUSH1 0x7 DUP3 AND ISZERO PUSH2 0x18F JUMPI PUSH1 0x8 DUP3 DIV PUSH1 0x0 SWAP1 DUP2 MSTORE PUSH1 0x1 DUP6 ADD PUSH1 0x20 MSTORE PUSH1 0x40 SWAP1 KECCAK256 DUP2 SWAP1 SSTORE JUMPDEST PUSH32 0x8FAA70878671CCD212D20771B795C50AF8FD3FF6CF27F4BDE57E5D4DE0AEB673 DUP8 DUP8 DUP8 PUSH1 0x40 MLOAD PUSH2 0x1C2 SWAP4 SWAP3 SWAP2 SWAP1 PUSH2 0x9B1 JUMP JUMPDEST PUSH1 0x40 MLOAD DUP1 SWAP2 SUB SWAP1 LOG1 PUSH2 0x1D4 DUP7 DUP7 PUSH2 0x7A0 JUMP JUMPDEST POP POP POP POP POP POP POP JUMP JUMPDEST PUSH1 0x0 PUSH2 0x1E7 PUSH2 0x255 JUMP JUMPDEST PUSH1 0x4 DUP2 ADD DUP1 SLOAD PUSH1 0x1 PUSH1 0x1 PUSH1 0xA0 SHL SUB DUP6 DUP2 AND PUSH32 0xFFFFFFFFFFFFFFFFFFFFFFFF0000000000000000000000000000000000000000 DUP4 AND DUP2 OR SWAP1 SWAP4 SSTORE PUSH1 0x40 MLOAD SWAP4 SWAP5 POP AND SWAP2 DUP3 SWAP1 PUSH32 0x8BE0079C531659141344CD1FD0A4F28419497F9722A3DAAFE3B4186F6B6457E0 SWAP1 PUSH1 0x0 SWAP1 LOG3 POP POP POP JUMP JUMPDEST PUSH32 0xC8FCAD8DB84D3CC18B4C41D551EA0EE66DD599CDE068D998E57D5E09332C131C SWAP1 JUMP JUMPDEST PUSH1 0x0 DUP1 PUSH1 0x0 PUSH2 0x286 PUSH2 0x255 JUMP JUMPDEST SWAP1 POP PUSH1 0x0 DUP5 MLOAD GT PUSH2 0x2A9 JUMPI PUSH1 0x40 MLOAD PUSH3 0x461BCD PUSH1 0xE5 SHL DUP2 MSTORE PUSH1 0x4 ADD PUSH2 0x62 SWAP1 PUSH2 0xB52 JUMP JUMPDEST PUSH1 0x0 DUP6 PUSH1 0x2 DUP2 GT ISZERO PUSH2 0x2B7 JUMPI INVALID JUMPDEST EQ ISZERO PUSH2 0x3E6 JUMPI PUSH1 0x1 PUSH1 0x1 PUSH1 0xA0 SHL SUB DUP7 AND PUSH2 0x2E3 JUMPI PUSH1 0x40 MLOAD PUSH3 0x461BCD PUSH1 0xE5 SHL DUP2 MSTORE PUSH1 0x4 ADD PUSH2 0x62 SWAP1 PUSH2 0xC69 JUMP JUMPDEST PUSH2 0x305 DUP7 PUSH1 0x40 MLOAD DUP1 PUSH1 0x60 ADD PUSH1 0x40 MSTORE DUP1 PUSH1 0x24 DUP2 MSTORE PUSH1 0x20 ADD PUSH2 0x1010 PUSH1 0x24 SWAP2 CODECOPY PUSH2 0x8CB JUMP JUMPDEST PUSH1 0x0 JUMPDEST DUP5 MLOAD DUP2 LT ISZERO PUSH2 0x3E0 JUMPI PUSH1 0x0 DUP6 DUP3 DUP2 MLOAD DUP2 LT PUSH2 0x31F JUMPI INVALID JUMPDEST PUSH1 0x20 SWAP1 DUP2 MUL SWAP2 SWAP1 SWAP2 ADD DUP2 ADD MLOAD PUSH1 0x1 PUSH1 0x1 PUSH1 0xE0 SHL SUB NOT DUP2 AND PUSH1 0x0 SWAP1 DUP2 MSTORE SWAP2 DUP6 SWAP1 MSTORE PUSH1 0x40 SWAP1 SWAP2 KECCAK256 SLOAD SWAP1 SWAP2 POP PUSH1 0x60 DUP2 SWAP1 SHR ISZERO PUSH2 0x36A JUMPI PUSH1 0x40 MLOAD PUSH3 0x461BCD PUSH1 0xE5 SHL DUP2 MSTORE PUSH1 0x4 ADD PUSH2 0x62 SWAP1 PUSH2 0xE12 JUMP JUMPDEST PUSH1 0x1 PUSH1 0x1 PUSH1 0xE0 SHL SUB NOT DUP3 DUP2 AND PUSH1 0x0 DUP2 DUP2 MSTORE PUSH1 0x20 DUP8 DUP2 MSTORE PUSH1 0x40 SWAP1 SWAP2 KECCAK256 PUSH12 0xFFFFFFFFFFFFFFFFFFFFFFFF NOT PUSH1 0x60 DUP15 SWAP1 SHL AND DUP16 OR SWAP1 SSTORE PUSH1 0x7 DUP15 AND MUL SWAP1 DUP2 SHR SWAP2 DUP2 SHR NOT SWAP12 SWAP1 SWAP12 AND OR SWAP10 PUSH1 0xE0 DUP2 EQ ISZERO PUSH2 0x3D1 JUMPI PUSH1 0x8 DUP13 DIV PUSH1 0x0 SWAP1 DUP2 MSTORE PUSH1 0x1 DUP7 ADD PUSH1 0x20 MSTORE PUSH1 0x40 DUP2 KECCAK256 SWAP12 SWAP1 SWAP12 SSTORE JUMPDEST POP POP POP PUSH1 0x1 SWAP9 DUP10 ADD SWAP9 ADD PUSH2 0x308 JUMP JUMPDEST POP PUSH2 0x794 JUMP JUMPDEST PUSH1 0x1 DUP6 PUSH1 0x2 DUP2 GT ISZERO PUSH2 0x3F4 JUMPI INVALID JUMPDEST EQ ISZERO PUSH2 0x54D JUMPI PUSH1 0x1 PUSH1 0x1 PUSH1 0xA0 SHL SUB DUP7 AND PUSH2 0x420 JUMPI PUSH1 0x40 MLOAD PUSH3 0x461BCD PUSH1 0xE5 SHL DUP2 MSTORE PUSH1 0x4 ADD PUSH2 0x62 SWAP1 PUSH2 0xCC6 JUMP JUMPDEST PUSH2 0x442 DUP7 PUSH1 0x40 MLOAD DUP1 PUSH1 0x60 ADD PUSH1 0x40 MSTORE DUP1 PUSH1 0x28 DUP2 MSTORE PUSH1 0x20 ADD PUSH2 0x105C PUSH1 0x28 SWAP2 CODECOPY PUSH2 0x8CB JUMP JUMPDEST PUSH1 0x0 JUMPDEST DUP5 MLOAD DUP2 LT ISZERO PUSH2 0x3E0 JUMPI PUSH1 0x0 DUP6 DUP3 DUP2 MLOAD DUP2 LT PUSH2 0x45C JUMPI INVALID JUMPDEST PUSH1 0x20 SWAP1 DUP2 MUL SWAP2 SWAP1 SWAP2 ADD DUP2 ADD MLOAD PUSH1 0x1 PUSH1 0x1 PUSH1 0xE0 SHL SUB NOT DUP2 AND PUSH1 0x0 SWAP1 DUP2 MSTORE SWAP2 DUP6 SWAP1 MSTORE PUSH1 0x40 SWAP1 SWAP2 KECCAK256 SLOAD SWAP1 SWAP2 POP PUSH1 0x60 DUP2 SWAP1 SHR ADDRESS DUP2 EQ ISZERO PUSH2 0x4AA JUMPI PUSH1 0x40 MLOAD PUSH3 0x461BCD PUSH1 0xE5 SHL DUP2 MSTORE PUSH1 0x4 ADD PUSH2 0x62 SWAP1 PUSH2 0xF29 JUMP JUMPDEST DUP10 PUSH1 0x1 PUSH1 0x1 PUSH1 0xA0 SHL SUB AND DUP2 PUSH1 0x1 PUSH1 0x1 PUSH1 0xA0 SHL SUB AND EQ ISZERO PUSH2 0x4DC JUMPI PUSH1 0x40 MLOAD PUSH3 0x461BCD PUSH1 0xE5 SHL DUP2 MSTORE PUSH1 0x4 ADD PUSH2 0x62 SWAP1 PUSH2 0xE6F JUMP JUMPDEST PUSH1 0x1 PUSH1 0x1 PUSH1 0xA0 SHL SUB DUP2 AND PUSH2 0x502 JUMPI PUSH1 0x40 MLOAD PUSH3 0x461BCD PUSH1 0xE5 SHL DUP2 MSTORE PUSH1 0x4 ADD PUSH2 0x62 SWAP1 PUSH2 0xF86 JUMP JUMPDEST POP PUSH1 0x1 PUSH1 0x1 PUSH1 0xE0 SHL SUB NOT SWAP1 SWAP2 AND PUSH1 0x0 SWAP1 DUP2 MSTORE PUSH1 0x20 DUP5 SWAP1 MSTORE PUSH1 0x40 SWAP1 KECCAK256 PUSH12 0xFFFFFFFFFFFFFFFFFFFFFFFF SWAP2 SWAP1 SWAP2 AND PUSH12 0xFFFFFFFFFFFFFFFFFFFFFFFF NOT PUSH1 0x60 DUP11 SWAP1 SHL AND OR SWAP1 SSTORE PUSH1 0x1 ADD PUSH2 0x445 JUMP JUMPDEST PUSH1 0x2 DUP6 PUSH1 0x2 DUP2 GT ISZERO PUSH2 0x55B JUMPI INVALID JUMPDEST EQ ISZERO PUSH2 0x77C JUMPI PUSH1 0x1 PUSH1 0x1 PUSH1 0xA0 SHL SUB DUP7 AND ISZERO PUSH2 0x588 JUMPI PUSH1 0x40 MLOAD PUSH3 0x461BCD PUSH1 0xE5 SHL DUP2 MSTORE PUSH1 0x4 ADD PUSH2 0x62 SWAP1 PUSH2 0xECC JUMP JUMPDEST PUSH1 0x8 DUP9 DIV PUSH1 0x0 NOT PUSH1 0x7 DUP11 AND ADD PUSH1 0x0 JUMPDEST DUP7 MLOAD DUP2 LT ISZERO PUSH2 0x76B JUMPI DUP10 PUSH2 0x5C4 JUMPI PUSH1 0x0 NOT SWAP1 SWAP3 ADD PUSH1 0x0 DUP2 DUP2 MSTORE PUSH1 0x1 DUP6 ADD PUSH1 0x20 MSTORE PUSH1 0x40 SWAP1 KECCAK256 SLOAD SWAP10 POP SWAP2 PUSH1 0x7 SWAP2 POP JUMPDEST PUSH1 0x0 DUP1 PUSH1 0x0 DUP1 DUP11 DUP6 DUP2 MLOAD DUP2 LT PUSH2 0x5D6 JUMPI INVALID JUMPDEST PUSH1 0x20 SWAP1 DUP2 MUL SWAP2 SWAP1 SWAP2 ADD DUP2 ADD MLOAD PUSH1 0x1 PUSH1 0x1 PUSH1 0xE0 SHL SUB NOT DUP2 AND PUSH1 0x0 SWAP1 DUP2 MSTORE SWAP2 DUP11 SWAP1 MSTORE PUSH1 0x40 SWAP1 SWAP2 KECCAK256 SLOAD SWAP1 SWAP2 POP PUSH1 0x60 DUP2 SWAP1 SHR PUSH2 0x620 JUMPI PUSH1 0x40 MLOAD PUSH3 0x461BCD PUSH1 0xE5 SHL DUP2 MSTORE PUSH1 0x4 ADD PUSH2 0x62 SWAP1 PUSH2 0xBAF JUMP JUMPDEST PUSH1 0x60 DUP2 SWAP1 SHR ADDRESS EQ ISZERO PUSH2 0x644 JUMPI PUSH1 0x40 MLOAD PUSH3 0x461BCD PUSH1 0xE5 SHL DUP2 MSTORE PUSH1 0x4 ADD PUSH2 0x62 SWAP1 PUSH2 0xDB5 JUMP JUMPDEST PUSH1 0x20 DUP8 MUL DUP16 SWAP1 SHL SWAP5 POP PUSH1 0x1 PUSH1 0x1 PUSH1 0xE0 SHL SUB NOT DUP1 DUP7 AND SWAP1 DUP4 AND EQ PUSH2 0x69E JUMPI PUSH1 0x1 PUSH1 0x1 PUSH1 0xE0 SHL SUB NOT DUP6 AND PUSH1 0x0 SWAP1 DUP2 MSTORE PUSH1 0x20 DUP11 SWAP1 MSTORE PUSH1 0x40 SWAP1 KECCAK256 DUP1 SLOAD PUSH12 0xFFFFFFFFFFFFFFFFFFFFFFFF NOT AND PUSH12 0xFFFFFFFFFFFFFFFFFFFFFFFF DUP4 AND OR SWAP1 SSTORE JUMPDEST PUSH1 0x1 PUSH1 0x1 PUSH1 0xE0 SHL SUB NOT DUP3 AND PUSH1 0x0 SWAP1 DUP2 MSTORE PUSH1 0x20 DUP11 SWAP1 MSTORE PUSH1 0x40 DUP2 KECCAK256 SSTORE PUSH2 0xFFFF DUP2 AND PUSH1 0x8 DUP2 DIV SWAP5 POP PUSH1 0x8 DUP2 MOD PUSH1 0x20 MUL SWAP4 POP POP POP POP DUP6 DUP3 EQ PUSH2 0x705 JUMPI PUSH1 0x0 DUP3 DUP2 MSTORE PUSH1 0x1 DUP9 ADD PUSH1 0x20 MSTORE PUSH1 0x40 SWAP1 KECCAK256 DUP1 SLOAD PUSH1 0x1 PUSH1 0x1 PUSH1 0xE0 SHL SUB NOT DUP1 DUP5 SHR NOT SWAP1 SWAP2 AND SWAP1 DUP6 AND DUP4 SHR OR SWAP1 SSTORE PUSH2 0x73E JUMP JUMPDEST DUP1 DUP4 PUSH28 0xFFFFFFFFFFFFFFFFFFFFFFFFFFFFFFFFFFFFFFFFFFFFFFFFFFFFFFFF NOT AND SWAP1 SHR DUP2 PUSH1 0x1 PUSH1 0x1 PUSH1 0xE0 SHL SUB NOT PUSH1 0x0 SHL SWAP1 SHR NOT DUP15 AND OR SWAP13 POP JUMPDEST DUP5 PUSH2 0x759 JUMPI PUSH1 0x0 DUP7 DUP2 MSTORE PUSH1 0x1 DUP9 ADD PUSH1 0x20 MSTORE PUSH1 0x40 DUP2 KECCAK256 DUP2 SWAP1 SSTORE SWAP13 POP JUMPDEST POP POP PUSH1 0x0 NOT SWAP1 SWAP3 ADD SWAP2 POP PUSH1 0x1 ADD PUSH2 0x597 JUMP JUMPDEST POP PUSH1 0x1 PUSH1 0x8 SWAP1 SWAP3 MUL ADD ADD SWAP8 POP PUSH2 0x794 JUMP JUMPDEST PUSH1 0x40 MLOAD PUSH3 0x461BCD PUSH1 0xE5 SHL DUP2 MSTORE PUSH1 0x4 ADD PUSH2 0x62 SWAP1 PUSH2 0xC0C JUMP JUMPDEST POP SWAP6 SWAP7 SWAP5 SWAP6 POP POP POP POP POP JUMP JUMPDEST PUSH1 0x1 PUSH1 0x1 PUSH1 0xA0 SHL SUB DUP3 AND PUSH2 0x7D2 JUMPI DUP1 MLOAD ISZERO PUSH2 0x7CD JUMPI PUSH1 0x40 MLOAD PUSH3 0x461BCD PUSH1 0xE5 SHL DUP2 MSTORE PUSH1 0x4 ADD PUSH2 0x62 SWAP1 PUSH2 0xA98 JUMP JUMPDEST PUSH2 0x8C7 JUMP JUMPDEST PUSH1 0x0 DUP2 MLOAD GT PUSH2 0x7F3 JUMPI PUSH1 0x40 MLOAD PUSH3 0x461BCD PUSH1 0xE5 SHL DUP2 MSTORE PUSH1 0x4 ADD PUSH2 0x62 SWAP1 PUSH2 0xD58 JUMP JUMPDEST PUSH1 0x1 PUSH1 0x1 PUSH1 0xA0 SHL SUB DUP3 AND ADDRESS EQ PUSH2 0x825 JUMPI PUSH2 0x825 DUP3 PUSH1 0x40 MLOAD DUP1 PUSH1 0x60 ADD PUSH1 0x40 MSTORE DUP1 PUSH1 0x28 DUP2 MSTORE PUSH1 0x20 ADD PUSH2 0x1034 PUSH1 0x28 SWAP2 CODECOPY PUSH2 0x8CB JUMP JUMPDEST PUSH1 0x0 PUSH1 0x60 DUP4 PUSH1 0x1 PUSH1 0x1 PUSH1 0xA0 SHL SUB AND DUP4 PUSH1 0x40 MLOAD PUSH2 0x841 SWAP2 SWAP1 PUSH2 0x995 JUMP JUMPDEST PUSH1 0x0 PUSH1 0x40 MLOAD DUP1 DUP4 SUB DUP2 DUP6 GAS DELEGATECALL SWAP2 POP POP RETURNDATASIZE DUP1 PUSH1 0x0 DUP2 EQ PUSH2 0x87C JUMPI PUSH1 0x40 MLOAD SWAP2 POP PUSH1 0x1F NOT PUSH1 0x3F RETURNDATASIZE ADD AND DUP3 ADD PUSH1 0x40 MSTORE RETURNDATASIZE DUP3 MSTORE RETURNDATASIZE PUSH1 0x0 PUSH1 0x20 DUP5 ADD RETURNDATACOPY PUSH2 0x881 JUMP JUMPDEST PUSH1 0x60 SWAP2 POP JUMPDEST POP SWAP2 POP SWAP2 POP DUP2 PUSH2 0x8C4 JUMPI DUP1 MLOAD ISZERO PUSH2 0x8AC JUMPI DUP1 PUSH1 0x40 MLOAD PUSH3 0x461BCD PUSH1 0xE5 SHL DUP2 MSTORE PUSH1 0x4 ADD PUSH2 0x62 SWAP2 SWAP1 PUSH2 0xA7E JUMP JUMPDEST PUSH1 0x40 MLOAD PUSH3 0x461BCD PUSH1 0xE5 SHL DUP2 MSTORE PUSH1 0x4 ADD PUSH2 0x62 SWAP1 PUSH2 0xAF5 JUMP JUMPDEST POP POP JUMPDEST POP POP JUMP JUMPDEST DUP2 EXTCODESIZE DUP2 DUP2 PUSH2 0x8C4 JUMPI PUSH1 0x40 MLOAD PUSH3 0x461BCD PUSH1 0xE5 SHL DUP2 MSTORE PUSH1 0x4 ADD PUSH2 0x62 SWAP2 SWAP1 PUSH2 0xA7E JUMP JUMPDEST PUSH1 0x1 PUSH1 0x1 PUSH1 0xA0 SHL SUB AND SWAP1 MSTORE JUMP JUMPDEST PUSH1 0x0 DUP2 MLOAD DUP1 DUP5 MSTORE PUSH1 0x20 DUP1 DUP6 ADD SWAP5 POP DUP1 DUP5 ADD DUP4 JUMPDEST DUP4 DUP2 LT ISZERO PUSH2 0x932 JUMPI DUP2 MLOAD PUSH1 0x1 PUSH1 0x1 PUSH1 0xE0 SHL SUB NOT AND DUP8 MSTORE SWAP6 DUP3 ADD SWAP6 SWAP1 DUP3 ADD SWAP1 PUSH1 0x1 ADD PUSH2 0x90C JUMP JUMPDEST POP SWAP5 SWAP6 SWAP5 POP POP POP POP POP JUMP JUMPDEST PUSH1 0x0 DUP2 MLOAD DUP1 DUP5 MSTORE PUSH2 0x955 DUP2 PUSH1 0x20 DUP7 ADD PUSH1 0x20 DUP7 ADD PUSH2 0xFE3 JUMP JUMPDEST PUSH1 0x1F ADD PUSH32 0xFFFFFFFFFFFFFFFFFFFFFFFFFFFFFFFFFFFFFFFFFFFFFFFFFFFFFFFFFFFFFFE0 AND SWAP3 SWAP1 SWAP3 ADD PUSH1 0x20 ADD SWAP3 SWAP2 POP POP JUMP JUMPDEST PUSH1 0x3 DUP2 LT PUSH2 0x991 JUMPI INVALID JUMPDEST SWAP1 MSTORE JUMP JUMPDEST PUSH1 0x0 DUP3 MLOAD PUSH2 0x9A7 DUP2 DUP5 PUSH1 0x20 DUP8 ADD PUSH2 0xFE3 JUMP JUMPDEST SWAP2 SWAP1 SWAP2 ADD SWAP3 SWAP2 POP POP JUMP JUMPDEST PUSH1 0x0 PUSH1 0x60 DUP1 DUP4 ADD DUP2 DUP5 MSTORE DUP1 DUP8 MLOAD DUP1 DUP4 MSTORE PUSH1 0x80 DUP7 ADD SWAP2 POP PUSH1 0x20 SWAP3 POP PUSH1 0x80 DUP4 DUP3 MUL DUP8 ADD ADD DUP4 DUP11 ADD DUP7 JUMPDEST DUP4 DUP2 LT ISZERO PUSH2 0xA50 JUMPI PUSH32 0xFFFFFFFFFFFFFFFFFFFFFFFFFFFFFFFFFFFFFFFFFFFFFFFFFFFFFFFFFFFFFF80 DUP10 DUP5 SUB ADD DUP6 MSTORE DUP2 MLOAD PUSH2 0xA14 DUP5 DUP3 MLOAD PUSH2 0x8EC JUMP JUMPDEST DUP7 DUP2 ADD MLOAD PUSH2 0xA24 DUP9 DUP7 ADD DUP3 PUSH2 0x987 JUMP JUMPDEST POP PUSH1 0x40 SWAP1 DUP2 ADD MLOAD SWAP1 DUP5 ADD DUP9 SWAP1 MSTORE PUSH2 0xA3D DUP5 DUP10 ADD DUP3 PUSH2 0x8F9 JUMP JUMPDEST SWAP6 DUP8 ADD SWAP6 SWAP4 POP POP SWAP1 DUP6 ADD SWAP1 PUSH1 0x1 ADD PUSH2 0x9D8 JUMP JUMPDEST POP POP PUSH2 0xA5E DUP5 DUP9 ADD DUP11 PUSH2 0x8EC JUMP JUMPDEST DUP7 DUP2 SUB PUSH1 0x40 DUP9 ADD MSTORE PUSH2 0xA70 DUP2 DUP10 PUSH2 0x93D JUMP JUMPDEST SWAP11 SWAP10 POP POP POP POP POP POP POP POP POP POP JUMP JUMPDEST PUSH1 0x0 PUSH1 0x20 DUP3 MSTORE PUSH2 0xA91 PUSH1 0x20 DUP4 ADD DUP5 PUSH2 0x93D JUMP JUMPDEST SWAP4 SWAP3 POP POP POP JUMP JUMPDEST PUSH1 0x20 DUP1 DUP3 MSTORE PUSH1 0x3C SWAP1 DUP3 ADD MSTORE PUSH32 0x4C69624469616D6F6E644375743A205F696E6974206973206164647265737328 PUSH1 0x40 DUP3 ADD MSTORE PUSH32 0x3029206275745F63616C6C64617461206973206E6F7420656D70747900000000 PUSH1 0x60 DUP3 ADD MSTORE PUSH1 0x80 ADD SWAP1 JUMP JUMPDEST PUSH1 0x20 DUP1 DUP3 MSTORE PUSH1 0x26 SWAP1 DUP3 ADD MSTORE PUSH32 0x4C69624469616D6F6E644375743A205F696E69742066756E6374696F6E207265 PUSH1 0x40 DUP3 ADD MSTORE PUSH32 0x7665727465640000000000000000000000000000000000000000000000000000 PUSH1 0x60 DUP3 ADD MSTORE PUSH1 0x80 ADD SWAP1 JUMP JUMPDEST PUSH1 0x20 DUP1 DUP3 MSTORE PUSH1 0x2B SWAP1 DUP3 ADD MSTORE PUSH32 0x4C69624469616D6F6E644375743A204E6F2073656C6563746F727320696E2066 PUSH1 0x40 DUP3 ADD MSTORE PUSH32 0x6163657420746F20637574000000000000000000000000000000000000000000 PUSH1 0x60 DUP3 ADD MSTORE PUSH1 0x80 ADD SWAP1 JUMP JUMPDEST PUSH1 0x20 DUP1 DUP3 MSTORE PUSH1 0x37 SWAP1 DUP3 ADD MSTORE PUSH32 0x4C69624469616D6F6E644375743A2043616E27742072656D6F76652066756E63 PUSH1 0x40 DUP3 ADD MSTORE PUSH32 0x74696F6E207468617420646F65736E2774206578697374000000000000000000 PUSH1 0x60 DUP3 ADD MSTORE PUSH1 0x80 ADD SWAP1 JUMP JUMPDEST PUSH1 0x20 DUP1 DUP3 MSTORE PUSH1 0x27 SWAP1 DUP3 ADD MSTORE PUSH32 0x4C69624469616D6F6E644375743A20496E636F72726563742046616365744375 PUSH1 0x40 DUP3 ADD MSTORE PUSH32 0x74416374696F6E00000000000000000000000000000000000000000000000000 PUSH1 0x60 DUP3 ADD MSTORE PUSH1 0x80 ADD SWAP1 JUMP JUMPDEST PUSH1 0x20 DUP1 DUP3 MSTORE PUSH1 0x2C SWAP1 DUP3 ADD MSTORE PUSH32 0x4C69624469616D6F6E644375743A204164642066616365742063616E27742062 PUSH1 0x40 DUP3 ADD MSTORE PUSH32 0x6520616464726573732830290000000000000000000000000000000000000000 PUSH1 0x60 DUP3 ADD MSTORE PUSH1 0x80 ADD SWAP1 JUMP JUMPDEST PUSH1 0x20 DUP1 DUP3 MSTORE PUSH1 0x30 SWAP1 DUP3 ADD MSTORE PUSH32 0x4C69624469616D6F6E644375743A205265706C6163652066616365742063616E PUSH1 0x40 DUP3 ADD MSTORE PUSH32 0x2774206265206164647265737328302900000000000000000000000000000000 PUSH1 0x60 DUP3 ADD MSTORE PUSH1 0x80 ADD SWAP1 JUMP JUMPDEST PUSH1 0x20 DUP1 DUP3 MSTORE DUP2 DUP2 ADD MSTORE PUSH32 0x4469616D6F6E643A2046756E6374696F6E20646F6573206E6F74206578697374 PUSH1 0x40 DUP3 ADD MSTORE PUSH1 0x60 ADD SWAP1 JUMP JUMPDEST PUSH1 0x20 DUP1 DUP3 MSTORE PUSH1 0x3D SWAP1 DUP3 ADD MSTORE PUSH32 0x4C69624469616D6F6E644375743A205F63616C6C6461746120697320656D7074 PUSH1 0x40 DUP3 ADD MSTORE PUSH32 0x7920627574205F696E6974206973206E6F742061646472657373283029000000 PUSH1 0x60 DUP3 ADD MSTORE PUSH1 0x80 ADD SWAP1 JUMP JUMPDEST PUSH1 0x20 DUP1 DUP3 MSTORE PUSH1 0x2E SWAP1 DUP3 ADD MSTORE PUSH32 0x4C69624469616D6F6E644375743A2043616E27742072656D6F766520696D6D75 PUSH1 0x40 DUP3 ADD MSTORE PUSH32 0x7461626C652066756E6374696F6E000000000000000000000000000000000000 PUSH1 0x60 DUP3 ADD MSTORE PUSH1 0x80 ADD SWAP1 JUMP JUMPDEST PUSH1 0x20 DUP1 DUP3 MSTORE PUSH1 0x35 SWAP1 DUP3 ADD MSTORE PUSH32 0x4C69624469616D6F6E644375743A2043616E2774206164642066756E6374696F PUSH1 0x40 DUP3 ADD MSTORE PUSH32 0x6E207468617420616C7265616479206578697374730000000000000000000000 PUSH1 0x60 DUP3 ADD MSTORE PUSH1 0x80 ADD SWAP1 JUMP JUMPDEST PUSH1 0x20 DUP1 DUP3 MSTORE PUSH1 0x38 SWAP1 DUP3 ADD MSTORE PUSH32 0x4C69624469616D6F6E644375743A2043616E2774207265706C6163652066756E PUSH1 0x40 DUP3 ADD MSTORE PUSH32 0x6374696F6E20776974682073616D652066756E6374696F6E0000000000000000 PUSH1 0x60 DUP3 ADD MSTORE PUSH1 0x80 ADD SWAP1 JUMP JUMPDEST PUSH1 0x20 DUP1 DUP3 MSTORE PUSH1 0x36 SWAP1 DUP3 ADD MSTORE PUSH32 0x4C69624469616D6F6E644375743A2052656D6F76652066616365742061646472 PUSH1 0x40 DUP3 ADD MSTORE PUSH32 0x657373206D757374206265206164647265737328302900000000000000000000 PUSH1 0x60 DUP3 ADD MSTORE PUSH1 0x80 ADD SWAP1 JUMP JUMPDEST PUSH1 0x20 DUP1 DUP3 MSTORE PUSH1 0x2F SWAP1 DUP3 ADD MSTORE PUSH32 0x4C69624469616D6F6E644375743A2043616E2774207265706C61636520696D6D PUSH1 0x40 DUP3 ADD MSTORE PUSH32 0x757461626C652066756E6374696F6E0000000000000000000000000000000000 PUSH1 0x60 DUP3 ADD MSTORE PUSH1 0x80 ADD SWAP1 JUMP JUMPDEST PUSH1 0x20 DUP1 DUP3 MSTORE PUSH1 0x38 SWAP1 DUP3 ADD MSTORE PUSH32 0x4C69624469616D6F6E644375743A2043616E2774207265706C6163652066756E PUSH1 0x40 DUP3 ADD MSTORE PUSH32 0x6374696F6E207468617420646F65736E27742065786973740000000000000000 PUSH1 0x60 DUP3 ADD MSTORE PUSH1 0x80 ADD SWAP1 JUMP JUMPDEST PUSH1 0x0 JUMPDEST DUP4 DUP2 LT ISZERO PUSH2 0xFFE JUMPI DUP2 DUP2 ADD MLOAD DUP4 DUP3 ADD MSTORE PUSH1 0x20 ADD PUSH2 0xFE6 JUMP JUMPDEST DUP4 DUP2 GT ISZERO PUSH2 0x8C4 JUMPI POP POP PUSH1 0x0 SWAP2 ADD MSTORE JUMP INVALID 0x4C PUSH10 0x624469616D6F6E644375 PUSH21 0x3A2041646420666163657420686173206E6F20636F PUSH5 0x654C696244 PUSH10 0x616D6F6E644375743A20 0x5F PUSH10 0x6E697420616464726573 PUSH20 0x20686173206E6F20636F64654C69624469616D6F PUSH15 0x644375743A205265706C6163652066 PUSH2 0x6365 PUSH21 0x20686173206E6F20636F6465A26469706673582212 KECCAK256 INVALID GT 0xE5 0xE3 0x2B SWAP3 SWAP15 SWAP8 0x2A 0xE3 PUSH19 0x9D4AA2F12AA6BA401FBAD7F0725B7168C445E8 PUSH5 0x9E64736F6C PUSH4 0x43000701 STOP CALLER 0x4C PUSH10 0x624469616D6F6E644375 PUSH21 0x3A2043616E2774207265706C6163652066756E4C69 PUSH3 0x446961 PUSH14 0x6F6E644375743A20416464206661 PUSH4 0x65742068 PUSH2 0x7320 PUSH15 0x6F20636F64654C69624469616D6F6E PUSH5 0x4375743A20 0x5F PUSH10 0x6E697420616464726573 PUSH20 0x20686173206E6F20636F64654C69624469616D6F PUSH15 0x644375743A205265706C6163652066 PUSH2 0x6365 PUSH21 0x20686173206E6F20636F6465A26469706673582212 KECCAK256 PUSH16 0xE4C4EA8541CA95612D47122566F2943B 0x2E 0x1E 0xD3 EXTCODESIZE 0xB3 LOG4 XOR SAR 0xC4 0xB6 SSTORE GASPRICE DUP9 ORIGIN 0xE9 PUSH5 0x736F6C6343 STOP SMOD ADD STOP CALLER "
    },
    "gasEstimates": {
      "creation": {
        "codeDepositCost": "2156200",
        "executionCost": "2294",
        "totalCost": "2158494"
      },
      "external": {
        "createDiamond(address,(address,uint8,bytes4[])[],bytes,bytes32)": "infinite"
      }
    },
    "methodIdentifiers": {
      "createDiamond(address,(address,uint8,bytes4[])[],bytes,bytes32)": "ccc2e316"
    }
  },
  "storageLayout": {
    "storage": [],
    "types": null
  },
  "userdoc": {
    "kind": "user",
    "methods": {},
    "version": 1
  },
  "solcInputHash": "1c35ae96eec04f819b95dcb93c58bdda"
}